:100000000C9436000C945E000C945E000C945E0020
:100010000C945E000C945E000C945E000C945E00E8
:100020000C945E000C945E000C945E000C945E00D8
:100030000C945E000C945E000C945E000C945E00C8
:100040000C9486070C945E000C9461050C945E0081
:100050000C945E000C945E000C945E000C945E00A8
:100060000C94AF020C945E00A8011A0611241FBE66
:10007000CFEFD8E0DEBFCDBF11E0A0E0B1E0ECE310
:10008000F1E102C005900D92AC34B107D9F712E04E
:10009000ACE4B1E001C01D92A931B107E1F710E075
:1000A000CCE6D0E004C02297FE010E949808C83632
:1000B000D107C9F70E945A050C949C080C940000C3
:1000C0000F931F93CF93DF93689F8001699F100D5B
:1000D000789F100D1124C8010E947C00EC0100974C
:1000E00029F060E070E0A8010E947E01CE01DF915E
:1000F000CF911F910F910895CF93DF93BC01823070
:10010000910510F462E070E0A0911702B09118021E
:10011000ED01E0E0F0E040E050E021C0888199810D
:100120008617970769F48A819B81309719F093832A
:10013000828304C09093180280931702FE0134C09A
:100140006817790738F44115510519F08417950798
:1001500008F4AC01FE018A819B819C01E901209792
:10016000E9F641155105A9F1CA01861B970B0497C1
:1001700008F4BA01E0E0F0E02AC08D919C9111975B
:1001800084179507F9F46417750781F412968D9119
:100190009C911397309719F09383828304C09093B6
:1001A000180280931702FD0132964CC0CA01861BCB
:1001B000970BFD01E80FF91F6193719302978D93DF
:1001C0009C9340C0FD01828193819C01D9011097CD
:1001D000A1F68091150290911602892B41F480912D
:1001E0003D0190913E01909316028093150240913B
:1001F0003F01509140014115510541F44DB75EB7A3
:1002000080913B0190913C01481B590B20911502B4
:1002100030911602CA01821B930B8617970780F054
:10022000AB014E5F5F4F8417950750F0420F531F8D
:100230005093160240931502F9016193719302C025
:10024000E0E0F0E0CF01DF91CF910895CF93DF930D
:10025000009709F450C0EC0122971B821A82A091EA
:100260001702B0911802109709F140E050E0AC1766
:10027000BD0708F1BB83AA83FE0121913191E20FF2
:10028000F31FAE17BF0779F48D919C911197280F3A
:10029000391F2E5F3F4F3983288312968D919C9191
:1002A00013979B838A834115510571F4D0931802EB
:1002B000C093170220C012968D919C911397AD01A7
:1002C000009711F0DC01D3CFFA01D383C2832191CF
:1002D0003191E20FF31FCE17DF0769F4888199810E
:1002E000280F391F2E5F3F4FFA01318320838A8107
:1002F0009B8193838283DF91CF910895DC0101C0BC
:100300006D9341505040E0F7089581E0809355018E
:1003100060935001109253011092540108958091FE
:100320004F0190914E01891B089590914E0180914B
:100330004F01981710F080E00895E0914C01F09182
:100340004D01E90FF11D80819F5F90934E0108954B
:100350000895DF93CF930F92CDB7DEB76983809175
:1003600055018823A9F0809154018032B0F4809126
:100370005301E0915101F0915201E80FF11D6083AA
:10038000809153018F5F809353018093540105C086
:10039000CE01019661E00E9492020F90CF91DF9111
:1003A00008950E94A9010895609151017091520130
:1003B000809150014091540121E00E944D02109221
:1003C000530110925401109255010895862F6091A7
:1003D0004C0170914D01413208F040E20E94170239
:1003E00010924E0180934F0108950E94E6010895F6
:1003F00080E290E061E070E00E94600080934C0138
:1004000090934D0110924E0110924F0180E290E0C6
:1004100061E070E00E94600080935101909352016E
:1004200010925301109254010E9431040895982FA4
:10043000413210F040E02FC0809157018823E1F74E
:1004400081E0809357018FEF8093680110925F01E4
:1004500040936001990F91609093580185EE8093CD
:10046000BC00809157018130E1F380915F018417D6
:1004700010F440915F01A0915D01B0915E0120E018
:1004800030E007C0FB01E20FF31F8D9180832F5FE7
:100490003F4F2417B8F3842F08951F93582F122F1E
:1004A000413210F081E03CC0809157018823E1F790
:1004B00082E0809357018FEF8093680110925F0173
:1004C00040936001A0915D01B0915E01FB0102C00B
:1004D00081918D938E2F861B8417D0F3852F90E00A
:1004E000880F991F8093580185EE8093BC001123DB
:1004F00021F0809157018230E1F3809168018F3FB4
:1005000011F480E00DC080916801803211F482E026
:1005100007C080916801803311F084E001C083E05E
:100520001F910895482F613210F081E00895809165
:100530005701843011F082E0089560936401A09126
:100540006101B0916201842F9C01F90102C0819187
:100550008D938E2F841B8617D0F380E008951F9211
:100560000F920FB60F9211242F933F934F935F93E7
:100570006F937F938F939F93AF93BF93EF93FF936B
:100580008091B90090E0887F90708036910509F4E1
:10059000E2C081369105CCF58832910509F47BC023
:1005A00089329105B4F48031910509F46FC081312D
:1005B00091053CF4009709F438C1089709F040C14F
:1005C00065C08831910509F466C0809709F038C18B
:1005D0007FC08034910509F4A3C08134910544F4AF
:1005E0008033910509F47FC0C89709F029C186C0FE
:1005F0008035910509F486C08835910509F495C0C8
:100600008834910509F01CC19EC08839910509F410
:1006100004C189399105ECF48837910509F49BC030
:10062000893791054CF48836910509F494C08037D8
:10063000910509F005C18FC08838910509F4EDC016
:100640008039910509F48DC08038910509F0F8C012
:1006500088C0803B910509F4B2C0813B91054CF400
:10066000803A910509F491C0883A910509F0E8C0F3
:10067000A6C0803C910509F4D4C0883C910509F4DA
:10068000D0C0883B910509F0DBC0B1C08091580112
:100690008093BB00C0C090915F018091600198176A
:1006A00078F490915F01E0915D01F0915E01E90FB6
:1006B000F11D80818093BB009F5F90935F01ABC071
:1006C00085ED8093BC008091BC0084FDFCCFB6C05A
:1006D00080E28093680185ED8093BC008091BC002E
:1006E00084FDFCCFABC080E38093680185ED8093EF
:1006F000BC008091BC0084FDFCCFA0C088E3809347
:1007000068018FC080915F019091BB00E0915D0115
:10071000F0915E01E80FF11D90838F5F80935F0180
:1007200090915F018091600174C080915F01909110
:10073000BB00E0915D01F0915E01E80FF11D908337
:100740008F5F80935F0185ED8093BC008091BC003A
:1007500084FDFCCF73C083E0809357011092670142
:100760005AC080916701803208F057C080916701BC
:100770009091BB00E0916501F0916601E80FF11DD9
:1007800090838F5F8093670146C0809167018032BC
:1007900048F480916701E0916501F0916601E80FEE
:1007A000F11D108260916701E0915B01F0915C01A5
:1007B000809165019091660170E0099532C084E0F6
:1007C000809357011092630110926401E0915901E6
:1007D000F0915A01099580916401882341F481E0E8
:1007E00080936401E0916101F09162011082909127
:1007F0006301E0916101F0916201E90FF11D8081D7
:100800008093BB009F5F90936301909163018091FF
:100810006401981710F485EC01C085E88093BC0052
:100820000FC085EC8093BC0009C01092680185ED73
:100830008093BC008091BC0084FDFCCF10925701D6
:10084000FF91EF91BF91AF919F918F917F916F91A8
:100850005F914F913F912F910F900FBE0F901F907E
:10086000189510925701449A459AE9EBF0E080817F
:100870008E7F808380818D7F808388E48093B80021
:1008800085E48093BC0080E290E061E070E00E942B
:10089000600080935D0190935E0180E290E061E0F2
:1008A00070E00E946000809361019093620180E299
:1008B00090E061E070E00E94600080936501909399
:1008C000660108951F93CF93DF9380916901909102
:1008D0006A010B970CF4A0C010926A011092690192
:1008E00086E591E062E570E046E050E00E94F501A7
:1008F000C0E7D1E017E107C086E591E00E949501CD
:100900008127895E899386E591E00E948F01882383
:1009100099F786E591E062E570E00E94850186E541
:1009200091E060E070E00E94D10186E591E00E94D4
:10093000D4018091720180936B0180917301809347
:100940006C018091740180936D012091750130E0FC
:1009500041E050E0C90184279527817080936E01A2
:100960003695279524273527217020936F018AEF2C
:1009700091E060E071E00E94880640916B0150E0D8
:1009800060E070E08AEF91E02AE030E00E946607C4
:100990008AEF91E067E071E00E94880640916C0167
:1009A00050E060E070E08AEF91E02AE030E00E94E1
:1009B00066078AEF91E06FE071E00E94880640913F
:1009C0006D0150E060E070E08AEF91E02AE030E0F5
:1009D0000E9466078AEF91E067E171E00E94880655
:1009E00040916E0150E060E070E08AEF91E02AE013
:1009F00030E00E9466078AEF91E06FE171E00E94AB
:100A0000880640916F0150E060E070E08AEF91E06D
:100A10002AE030E00E947B078091690190916A0191
:100A2000019690936A018093690161E070E080E033
:100A300090E00E94CE07DF91CF911F910895EF9231
:100A4000FF920F931F930AEF11E0C80140E05BE4AF
:100A500060E070E00E949E0587B18C6087B9429883
:100A6000439A64E670E080E090E00E94CE0796E54D
:100A7000E92E91E0F92EC7010E94F801C70162E555
:100A800070E00E948501C70160E470E00E94D1011E
:100A9000C70160E070E00E94D101C7010E94D4014B
:100AA000C80167E271E00E9488061F910F91FF90D4
:100AB000EF9008950E94F8070E941F050E946204AB
:100AC000FDCF1F920F920FB60F9211242F933F93D9
:100AD0004F935F936F937F938F939F93AF93BF9346
:100AE000EF93FF934091C600E091F601F091F7017A
:100AF000CF01019660E870E00E9432089C0180916D
:100B0000F8019091F9012817390739F0EA58FE4F9A
:100B100040833093F7012093F601FF91EF91BF914D
:100B2000AF919F918F917F916F915F914F913F9185
:100B30002F910F900FBE0F901F901895AF92BF92FC
:100B4000CF92DF92EF92FF920F931F93CF93DF9399
:100B50006C017A018B01DC011496AD90BC90159765
:100B6000CB01BA0122E030E040E050E00E9467088B
:100B7000205C3D4B404F5F4FCA01B901A80197016E
:100B80000E946708C901DA010197A109B109292F5B
:100B90003A2F4B2F552747FD5A950196A11DB11DA0
:100BA000E5012883E601EE81FF8181508083EA859B
:100BB000FB85208141E050E0CA010E8402C0880F0D
:100BC000991F0A94E2F7282B2083EA85FB85208170
:100BD000CA010F8402C0880F991F0A94E2F7282BDC
:100BE0002083EA85FB858081088802C0440F551F59
:100BF0000A94E2F7842B8083DF91CF911F910F91AC
:100C0000FF90EF90DF90CF90BF90AF900895FC01E0
:100C1000A085B18521898C9190E0022E02C0959526
:100C200087950A94E2F780FFF6CF0484F585E02DDE
:100C30006083089585E491E09093FB018093FA012D
:100C400086E791E09093FD018093FC0185EC90E0B4
:100C50009093FF018093FE0184EC90E09093010259
:100C60008093000280EC90E0909303028093020254
:100C700081EC90E0909305028093040286EC90E072
:100C8000909307028093060284E08093080283E039
:100C90008093090287E080930A0285E080930B022B
:100CA00008950F931F93CF93DF938C01EB0109C03D
:100CB0002196D801ED91FC910190F081E02DC801C1
:100CC000099568816623A1F7DF91CF911F910F915C
:100CD0000895EF92FF920F931F93CF93DF938C01B0
:100CE0007B01EA010CC0D7016D917D01D801ED9126
:100CF000FC910190F081E02DC80109952197209782
:100D000091F7DF91CF911F910F91FF90EF90089590
:100D1000DC01ED91FC910280F381E02D09950895AD
:100D20000F931F938C01DC01ED91FC910190F081F8
:100D3000E02D6DE00995D801ED91FC910190F081D5
:100D4000E02DC8016AE009951F910F9108952F9237
:100D50003F924F925F926F927F928F929F92AF924B
:100D6000BF92CF92DF92EF92FF920F931F93DF9388
:100D7000CF93CDB7DEB7A0970FB6F894DEBF0FBE06
:100D8000CDBF1C016A017B0141155105610571054B
:100D900049F4DC01ED91FC910190F081E02D60E3DC
:100DA000099554C0882499245401422E5524662460
:100DB000772401E010E00C0F1D1F080D191DC7015D
:100DC000B601A30192010E944508F80160830894CE
:100DD000811C911CA11CB11CC701B601A301920189
:100DE0000E944508C901DA016C017D01C114D104DA
:100DF000E104F104F1F681E0E82EF12CEC0EFD1E89
:100E0000E80CF91C3E010894611C711CD501C40159
:100E10000197A109B1096C01C818D90814C0F601DD
:100E2000EE0DFF1D60816A3010F4605D01C0695CE9
:100E3000D101ED91FC910190F081E02DC101099566
:100E40000894E108F1086E147F0449F7A0960FB6E4
:100E5000F894DEBF0FBECDBFCF91DF911F910F91F0
:100E6000FF90EF90DF90CF90BF90AF909F908F90CA
:100E70007F906F905F904F903F902F900895EF92EA
:100E8000FF920F931F93CF93DF93EC017A018B01B5
:100E900077FF0FC0E881F9810190F081E02D6DE2CC
:100EA000099510950095F094E094E11CF11C011D4A
:100EB000111DCE01B801A7012AE00E94A706DF910B
:100EC000CF911F910F91FF90EF900895DC012115B4
:100ED000310541F4ED91FC910190F081E02D642FFA
:100EE000099508952A30310519F40E943F070895A5
:100EF0000E94A70608950F931F938C010E94660716
:100F0000C8010E9490061F910F9108951F920F92A1
:100F10000FB60F9211242F933F938F939F93AF930C
:100F2000BF938091100290911102A0911202B09192
:100F30001302309114020196A11DB11D232F2D5FC4
:100F40002D3720F02D570196A11DB11D20931402BD
:100F50008093100290931102A0931202B093130297
:100F600080910C0290910D02A0910E02B0910F029F
:100F70000196A11DB11D80930C0290930D02A093C8
:100F80000E02B0930F02BF91AF919F918F913F914D
:100F90002F910F900FBE0F901F901895EF92FF9218
:100FA0000F931F937B018C018FB7F894409110022F
:100FB0005091110260911202709113028FBF2FB7EE
:100FC000F8948091100290911102A0911202B091B8
:100FD00013022FBF841B950BA60BB70BE816F9065F
:100FE0000A071B0760F71F910F91FF90EF9008957C
:100FF000789484B5826084BD84B5816084BD85B5F4
:10100000826085BD85B5816085BDEEE6F0E08081BA
:1010100081608083E1E8F0E080818260808380816C
:1010200081608083E0E8F0E0808181608083E1EB93
:10103000F0E0808184608083E0EBF0E0808181607B
:101040008083EAE7F0E08081846080838081826031
:10105000808380818160808380818068808310921A
:10106000C100089597FB092E07260AD077FD04D00A
:1010700049D006D000201AF4709561957F4F0895ED
:10108000F6F7909581959F4F0895A1E21A2EAA1B1D
:10109000BB1BFD010DC0AA1FBB1FEE1FFF1FA21728
:1010A000B307E407F50720F0A21BB30BE40BF50B25
:1010B000661F771F881F991F1A9469F760957095AE
:1010C000809590959B01AC01BD01CF01089597FBE0
:1010D000092E05260ED057FD04D0D7DF0AD0001CFC
:1010E00038F450954095309521953F4F4F4F5F4FC5
:1010F0000895F6F790958095709561957F4F8F4F85
:101100009F4F0895AA1BBB1B51E107C0AA1FBB1F1D
:10111000A617B70710F0A61BB70B881F991F5A9583
:10112000A9F780959095BC01CD010895EE0FFF1FA2
:0C1130000590F491E02D0994F894FFCF95
:10113C00616363783A200009616363793A2000099E
:10114C006163637A3A2000097A6275743A20000967
:10115C00636275743A2000576969436875636B4420
:10116C00656D6F2072656164790A002000190200B8
:0C117C0000000000000706510669060094
:00000001FF
