:100000000C9462000C948A000C948A000C948A0070
:100010000C948A000C948A000C948A000C948A0038
:100020000C948A000C948A000C948A000C948A0028
:100030000C948A000C948A000C948A000C948A0018
:100040000C946B030C948A000C9444020C948A0068
:100050000C948A000C948A000C948A000C948A00F8
:100060000C948A000C948A000000000024002700F1
:100070002A0000000000250028002B0000000000DE
:1000800023002600290004040404040404040202DA
:100090000202020203030303030301020408102007
:1000A0004080010204081020010204081020000012
:1000B0000007000201000003040600000000000029
:1000C0000000FD0211241FBECFEFD8E0DEBFCDBF80
:1000D00011E0A0E0B1E0EAE6FDE002C005900D927B
:1000E000A031B107D9F711E0A0E1B1E001C01D9244
:1000F000AF3AB107E1F710E0C4ECD0E004C02297BA
:10010000FE010E94AF06C23CD107C9F70E943D0222
:100110000C94B3060C9400000F931F93982F162F86
:10012000042F80910001692F0E940D04809102012B
:10013000612F0E940D0480910401602F0E940D0424
:100140001F910F910895CF92DF92EF92FF920F933C
:100150001F93CF93DF939B01FA0160E170E00E944F
:100160004906462F172FC90160E170E00E94490639
:100170006B01CF0160E170E00E9449067B01842F92
:10018000912FEC018E010051104080E090E01C1690
:100190001D0614F481E090E0219760E070E01C14EB
:1001A0001D0414F461E070E00894C108D10840E037
:1001B00050E01E141F0414F441E050E00894E108DC
:1001C000F1080E948C00C017D107F9F6DF91CF919A
:1001D0001F910F91FF90EF90DF90CF9008952F9295
:1001E0003F924F925F926F927F928F929F92AF92C7
:1001F000BF92CF92DF92EF92FF920F931F93DF9304
:10020000CF93CDB7DEB7A0970FB6F894DEBF0FBE81
:10021000CDBFDA82C98218A21F8E5601CC24B7FC4A
:10022000C094DC2CAB82BC82CD82DE825C01CC240B
:10023000B7FCC094DC2CAF82B886C986DA86281B4E
:10024000390BC901AA2797FDA095BA2F8B879C87E8
:10025000AD87BE875B01CC24B7FCC094DC2CAF8695
:10026000B88AC98ADA8A061B170BC801AA2797FD24
:10027000A095BA2F8B8B9C8BAD8BBE8B5A01CC2457
:10028000B7FCC094DC2CAF8AB88EC98EDA8EE41A23
:10029000F50AC701AA2797FDA095BA2F8B8F9C8FCF
:1002A000AD8FBE8F77C0AF8DB8A1BD01882777FD18
:1002B0008095982F0E945A057B018C016B817C816F
:1002C0008D819E810E945A059B01AC01C801B70136
:1002D0000E94BF045B016C016F81788589859A85D6
:1002E0000E945A057B018C016B857C858D859E85DE
:1002F0000E945A05A60195010E94E6059B01AC01EA
:10030000C801B7010E945B040E9427051B012C0154
:100310006F85788989899A890E945A057B018C01A9
:100320006B897C898D899E890E945A05A601950159
:100330000E94E6059B01AC01C801B7010E945B0465
:100340000E9427053B014C016F89788D898D9A8D1C
:100350000E945A057B018C016B8D7C8D8D8D9E8D4D
:100360000E945A05A60195010E94E6059B01AC0179
:10037000C801B7010E945B040E9427059B01AC01E4
:10038000C101B301A9010E94A300EF8DF8A131962C
:10039000F8A3EF8FAF8CB8A0C980DA80AC14BD048D
:1003A0000CF481CFA0960FB6F894DEBF0FBECDBF80
:1003B000CF91DF911F910F91FF90EF90DF90CF9041
:1003C000BF90AF909F908F907F906F905F904F9075
:1003D0003F902F900895CF92DF92EF92FF920F936C
:1003E0001F938FEF90E060E070E040E050E020E08D
:1003F00030E00FEF10E0EE24FF24F0E1CF2EF7E223
:10040000DF2E0E94EF0080E090E06FEF70E040E0B0
:1004100050E020E030E000E010E0EFEFEE2EF12CB5
:100420000E94EF0080E090E060E070E04FEF50E06D
:100430002FEF30E0EE24FF240E94EF001F910F9178
:10044000FF90EF90DF90CF9008958091000161E0E0
:100450000E94ED038091020161E00E94ED03809112
:10046000040161E00E94ED0384E991E040E855E277
:1004700060E070E00E94810208950E94B3030E9430
:1004800025020E94EB01FDCF1F920F920FB60F9233
:1004900011242F933F934F935F936F937F938F9389
:1004A0009F93AF93BF93EF93FF934091C600E0916A
:1004B0009001F0919101CF01019660E870E00E94F7
:1004C00049069C0180919201909193012817390768
:1004D00039F0E05FFE4F408330939101209390010B
:1004E000FF91EF91BF91AF919F918F917F916F910C
:1004F0005F914F913F912F910F900FBE0F901F90E2
:100500001895AF92BF92CF92DF92EF92FF920F9326
:100510001F93CF93DF936C017A018B01DC0114965A
:10052000AD90BC901597CB01BA0122E030E040E0DD
:1005300050E00E947E06205C3D4B404F5F4FCA0159
:10054000B901A80197010E947E06C901DA0101974D
:10055000A109B109292F3A2F4B2F552747FD5A954D
:100560000196A11DB11DE5012883E601EE81FF8101
:1005700081508083EA85FB85208141E050E0CA01FB
:100580000E8402C0880F991F0A94E2F7282B20835B
:10059000EA85FB852081CA010F8402C0880F991F5C
:1005A0000A94E2F7282B2083EA85FB85808108885E
:1005B00002C0440F551F0A94E2F7842B8083DF9119
:1005C000CF911F910F91FF90EF90DF90CF90BF9050
:1005D000AF900895FC01A085B18521898C9190E0B0
:1005E000022E02C0959587950A94E2F780FFF6CF18
:1005F0000484F585E02D608308958AE091E090936E
:1006000095018093940180E191E09093970180930C
:10061000960185EC90E0909399018093980184EC89
:1006200090E090939B0180939A0180EC90E09093EE
:100630009D0180939C0181EC90E090939F018093B9
:100640009E0186EC90E09093A1018093A00184E04C
:100650008093A20183E08093A30187E08093A401AB
:1006600085E08093A50108950F931F93CF93DF93A7
:100670008C01EB0109C02196D801ED91FC9101900C
:10068000F081E02DC801099568816623A1F7DF910B
:10069000CF911F910F910895EF92FF920F931F93A7
:1006A000CF93DF938C017B01EA010CC0D7016D91E0
:1006B0007D01D801ED91FC910190F081E02DC80100
:1006C00009952197209791F7DF91CF911F910F9175
:1006D000FF90EF9008951F920F920FB60F92112482
:1006E0002F933F938F939F93AF93BF938091AA01D2
:1006F0009091AB01A091AC01B091AD013091AE01F0
:100700000196A11DB11D232F2D5F2D3720F02D57F0
:100710000196A11DB11D2093AE018093AA01909373
:10072000AB01A093AC01B093AD018091A601909173
:10073000A701A091A801B091A9010196A11DB11D29
:100740008093A6019093A701A093A801B093A9015B
:10075000BF91AF919F918F913F912F910F900FBEBD
:100760000F901F901895789484B5826084BD84B5ED
:10077000816084BD85B5826085BD85B5816085BD9C
:10078000EEE6F0E0808181608083E1E8F0E0808146
:1007900082608083808181608083E0E8F0E08081F6
:1007A00081608083E1EBF0E0808184608083E0EB16
:1007B000F0E0808181608083EAE7F0E080818460FE
:1007C000808380818260808380818160808380815A
:1007D000806880831092C1000895282F30E0C901FD
:1007E00086569F4FFC0194912A573F4FF9018491FF
:1007F000882391F0E82FF0E0EE0FFF1FE859FF4F3C
:10080000A591B491662329F48C91909589238C93BA
:1008100008958C91892B8C930895482F50E0CA013C
:1008200082559F4FFC012491CA0186569F4FFC01BF
:1008300094914A575F4FFA0134913323D1F1222327
:1008400031F1233021F4809180008F7705C024306E
:1008500031F4809180008F7D8093800018C021301A
:1008600019F484B58F7704C0223021F484B58F7DCC
:1008700084BD0DC0263021F48091B0008F7705C073
:10088000273029F48091B0008F7D8093B000E32F52
:10089000F0E0EE0FFF1FEE58FF4FA591B4916623D5
:1008A00029F48C91909589238C9308958C91892BB0
:1008B0008C9308955058BB27AA270ED04DC13ED126
:1008C00030F043D120F031F49F3F11F41EF433C1D6
:1008D0000EF4E095E7FB29C1E92F4FD180F3BA1759
:1008E000620773078407950718F071F49EF567C1D6
:1008F0000EF4E0950B2EBA2FA02D0B01B90190013B
:100900000C01CA01A0011124FF27591B99F0593F7E
:1009100050F4503E68F11A16F040A22F232F342FC6
:100920004427585FF3CF469537952795A795F04014
:100930005395C9F77EF41F16BA0B620B730B840B29
:10094000BAF09150A1F0FF0FBB1F661F771F881FE1
:10095000C2F70EC0BA0F621F731F841F48F4879539
:1009600077956795B795F7959E3F08F0B3CF939528
:10097000880F08F09927EE0F9795879508950CD06A
:10098000EBC0E3D040F0DAD030F021F45F3F19F053
:10099000CCC0511115C1CFC0F0D098F39923C9F341
:1009A0005523B1F3951B550BBB27AA276217730775
:1009B000840738F09F5F5F4F220F331F441FAA1F29
:1009C000A9F333D00E2E3AF0E0E830D091505040E9
:1009D000E695001CCAF729D0FE2F27D0660F771F97
:1009E000881FBB1F261737074807AB07B0E809F079
:1009F000BB0B802DBF01FF2793585F4F2AF09E3F0E
:100A0000510568F092C0DCC05F3FECF3983EDCF328
:100A1000869577956795B795F7959F5FC9F7880F86
:100A2000911D9695879597F90895E1E0660F771FD8
:100A3000881FBB1F621773078407BA0720F0621B69
:100A4000730B840BBA0BEE1F88F7E095089504D062
:100A50006894B111B5C0089598D088F09F5790F070
:100A6000B92F9927B751A0F0D1F0660F771F881FD3
:100A7000991F1AF0BA95C9F712C0B13081F09FD012
:100A8000B1E008959CC0672F782F8827B85F39F0B0
:100A9000B93FCCF3869577956795B395D9F73EF432
:100AA00090958095709561957F4F8F4F9F4F0895DA
:100AB000E89409C097FB3EF49095809570956195F8
:100AC0007F4F8F4F9F4F9923A9F0F92F96E9BB27AE
:100AD0009395F695879577956795B795F111F8CF2A
:100AE000FAF4BB0F11F460FF1BC06F5F7F4F8F4F95
:100AF0009F4F16C0882311F096E911C0772321F08B
:100B00009EE8872F762F05C0662371F096E8862F22
:100B100070E060E02AF09A95660F771F881FDAF779
:100B2000880F9695879597F9089597F99F6780E8BC
:100B300070E060E008959FEF80EC089500240A942F
:100B40001616170618060906089500240A941216A8
:100B50001306140605060895092E0394000C11F4DB
:100B6000882352F0BB0F40F4BF2B11F460FF04C088
:100B70006F5F7F4F8F4F9F4F089557FD9058440FE1
:100B8000551F59F05F3F71F04795880F97FB991FEC
:100B900061F09F3F79F087950895121613061406A9
:100BA000551FF2CF4695F1DF08C016161706180636
:100BB000991FF1CF86957105610508940895E89411
:100BC000BB2766277727CB0197F908950BD0C4CFB1
:100BD000B5DF28F0BADF18F0952309F0A6CFABCF28
:100BE0001124EECFCADFA0F3959FD1F3950F50E00B
:100BF000551F629FF001729FBB27F00DB11D639FCF
:100C0000AA27F00DB11DAA1F649F6627B00DA11D74
:100C1000661F829F2227B00DA11D621F739FB00D1A
:100C2000A11D621F839FA00D611D221F749F33278A
:100C3000A00D611D231F849F600D211D822F762F23
:100C40006A2F11249F5750408AF0E1F088234AF020
:100C5000EE0FFF1FBB1F661F771F881F915050406C
:100C6000A9F79E3F510570F060CFAACF5F3FECF32C
:100C7000983EDCF3869577956795B795F795E79558
:100C80009F5FC1F7FE2B880F911D9695879597F969
:100C9000089597FB092E07260AD077FD04D049D086
:100CA00006D000201AF4709561957F4F0895F6F7ED
:100CB000909581959F4F0895A1E21A2EAA1BBB1B08
:100CC000FD010DC0AA1FBB1FEE1FFF1FA217B30718
:100CD000E407F50720F0A21BB30BE40BF50B661F2E
:100CE000771F881F991F1A9469F7609570958095F2
:100CF00090959B01AC01BD01CF01089597FB092E92
:100D000005260ED057FD04D0D7DF0AD0001C38F4DA
:100D100050954095309521953F4F4F4F5F4F089527
:100D2000F6F790958095709561957F4F8F4F9F4F07
:100D30000895AA1BBB1B51E107C0AA1FBB1FA61722
:100D4000B70710F0A61BB70B881F991F5A95A9F774
:100D500080959095BC01CD010895EE0FFF1F059081
:0A0D6000F491E02D0994F894FFCF00
:100D6A0002000300040000000000EA0234034C03FE
:00000001FF
