:100000000C9461000C947E000C947E000C947E0095
:100010000C947E000C947E000C947E000C947E0068
:100020000C947E000C947E000C947E000C947E0058
:100030000C947E000C947E000C947E000C947E0048
:100040000C942C010C947E000C947E000C947E0089
:100050000C947E000C947E000C947E000C947E0028
:100060000C947E000C947E00000000002400270009
:100070002A0000000000250028002B0000000000DE
:1000800023002600290004040404040404040202DA
:100090000202020203030303030301020408102007
:1000A0004080010204081020010204081020000012
:1000B0000007000201000003040600000000000029
:1000C000000011241FBECFEFD8E0DEBFCDBF11E08E
:1000D000A0E0B1E0EEE8F4E002C005900D92A63099
:1000E000B107D9F711E0A6E0B1E001C01D92AF3031
:1000F000B107E1F70E9425010C9445020C94000021
:100100000F931F93CF93DF93982F162F042FE9019E
:1001100080910001692F0E94F80180910201612FF6
:100120000E94F80180910401602F0E94F8011C16C2
:100130001D063CF4BE01882777FD8095982F0E940C
:100140007401DF91CF911F910F91089581E090E0AC
:1001500060E070E040E050E020E030E00E9480008D
:1001600081E090E060E070E040E050E020E030E0CE
:100170000E94800080E090E061E070E040E050E0AC
:1001800020E030E00E94800080E090E060E070E0DD
:1001900041E050E020E030E00E94800081E090E00B
:1001A00060E070E040E050E020E030E00E9480003D
:1001B00080E090E060E070E041E050E020E030E07E
:1001C0000E94800080E090E060E070E041E050E05C
:1001D00020E030E00E94800080E090E060E070E08D
:1001E00041E050E020E030E00E94800081E090E0BB
:1001F00060E070E040E050E020E030E00E948000ED
:1002000080E090E060E070E041E050E020E030E02D
:100210000E94800080E090E060E070E041E050E00B
:1002200020E030E00E94800008958091000161E0AC
:100230000E94D8018091020161E00E94D801809162
:10024000040161E00E94D80108950E949E010E946D
:1002500015010E94A600FDCF1F920F920FB60F92BC
:1002600011242F933F938F939F93AF93BF938091CC
:100270000A0190910B01A0910C01B0910D013091F8
:100280000E010196A11DB11D232F2D5F2D3720F0EA
:100290002D570196A11DB11D20930E0180930A01D7
:1002A00090930B01A0930C01B0930D018091060176
:1002B00090910701A0910801B09109010196A11D3B
:1002C000B11D8093060190930701A0930801B0939C
:1002D0000901BF91AF919F918F913F912F910F9005
:1002E0000FBE0F901F901895EF92FF920F931F93E0
:1002F0007B018C018FB7F89440910A0150910B015A
:1003000060910C0170910D018FBF2FB7F89480910F
:100310000A0190910B01A0910C01B0910D012FBF2A
:10032000841B950BA60BB70BE816F9060A071B07EB
:1003300060F71F910F91FF90EF900895789484B526
:10034000826084BD84B5816084BD85B5826085BDD1
:1003500085B5816085BDEEE6F0E0808181608083B7
:10036000E1E8F0E080818260808380818160808329
:10037000E0E8F0E0808181608083E1EBF0E0808163
:1003800084608083E0EBF0E0808181608083EAE735
:10039000F0E08081846080838081826080838081BE
:1003A000816080838081806880831092C10008957D
:1003B000282F30E0C90186569F4FFC0194912A579F
:1003C0003F4FF9018491882391F0E82FF0E0EE0F80
:1003D000FF1FE859FF4FA591B491662329F48C9132
:1003E000909589238C9308958C91892B8C930895F3
:1003F000482F50E0CA0182559F4FFC012491CA0149
:1004000086569F4FFC0194914A575F4FFA013491F1
:100410003323D1F1222331F1233021F48091800064
:100420008F7705C0243031F4809180008F7D8093D8
:10043000800018C0213019F484B58F7704C02230B1
:1004400021F484B58F7D84BD0DC0263021F48091C8
:10045000B0008F7705C0273029F48091B0008F7DE0
:100460008093B000E32FF0E0EE0FFF1FEE58FF4F38
:10047000A591B491662329F48C91909589238C934E
:0E04800008958C91892B8C930895F894FFCFEA
:06048E000200030004005F
:00000001FF
