:100000000C9462000C948A000C948A000C948A0070
:100010000C948A000C948A000C948A000C948A0038
:100020000C948A000C948A000C948A000C948A0028
:100030000C948A000C948C000C948A000C948A0016
:100040000C94A0030C948A000C944F020C948A0028
:100050000C948A000C948A000C948A000C948A00F8
:100060000C948A000C948A000000000024002700F1
:100070002A0000000000250028002B0000000000DE
:1000800023002600290004040404040404040202DA
:100090000202020203030303030301020408102007
:1000A0004080010204081020010204081020000012
:1000B0000007000201000003040600000000000029
:1000C0000000080311241FBECFEFD8E0DEBFCDBF74
:1000D00011E0A0E0B1E0EAE4FAE002C005900D9280
:1000E000AC31B107D9F711E0ACE1B1E001C01D922C
:1000F000A83DB107E1F710E0C4ECD0E004C02297BE
:10010000FE010E941F05C23CD107C9F70E944802A8
:100110000C9423050C9400001F920F920FB60F92BF
:1001200011242F933F934F935F936F937F938F93FC
:100130009F93AF93BF93EF93FF9380E280938000F0
:1001400010926F0010921C01E0911D01F0911E01B0
:10015000309711F078940995FF91EF91BF91AF918D
:100160009F918F917F916F915F914F913F912F91CF
:100170000F900FBE0F901F90189580911C0188233F
:1001800011F081E0089580E2809380008091380131
:10019000882319F01092380102C02D9A2D98EFE1B2
:1001A000F1E080818EBD0DB407FEFDCF81818EBD53
:1001B0000DB407FEFDCF828133968EBD0DB407FED0
:1001C000FDCF81E0E733F80761F791E090931C01E0
:1001D00080EA80938000B09A90936F0080E0089549
:1001E000CF93DF93EC01219A229A539A2A9A239A69
:1001F000259A229A2D9881E08DBD80E58CBDCB019A
:1002000024E0969587952A95E1F7262F2295207F61
:10021000272BEFE1F1E0808321836283339691E025
:10022000E733F907C1F7CE010E94BD0080E2809359
:10023000800010926F0010921C01299A29988093D7
:10024000800080E18093810081E090E090938900BC
:100250008093880082E090E090938B0080938A00E6
:1002600080E090E2909387008093860083E2809301
:10027000B00088E08093B1001092B40083E08093D6
:10028000B3008091B10081608093B10080918100C2
:10029000816080938100CE010E94BD00DF91CF91EB
:1002A00008959FE0961B83E0989FF0011124F69536
:1002B000E795E15EFE4F90FF06C08081807F852B31
:1002C000808341830895CA0134E0969587953A95D5
:1002D000E1F7808381818F70942F9295907F892B95
:1002E000818308950F931F93982F162F042F84E076
:1002F000692F0E946C0485E0612F0E946C0486E0E7
:10030000602F0E946C041F910F910895AF92BF92CD
:10031000CF92DF92EF92FF920F931F937C016B01BC
:100320005A0107E311E0C80160E0A9010E945101F0
:10033000C8010E94BD00C701B601A5010E9472015B
:1003400061E070E080E090E00E94E8031F910F916F
:10035000FF90EF90DF90CF90BF90AF900895EF9215
:10036000FF920F931F939C018B017A0181E090E033
:1003700060E070E040E050E00E94860180E090E0A4
:1003800061E070E040E050E098010E94860180E06A
:1003900090E060E070E041E050E097010E9486014B
:1003A0001F910F91FF90EF900895AF92BF92CF925F
:1003B000DF92EF92FF920F931F93CF93DF935C0135
:1003C0006B017A018901C0E0D0E006C0C501B60129
:1003D000A7010E94AF012196C017D107BCF3DF919E
:1003E000CF911F910F91FF90EF90DF90CF90BF9032
:1003F000AF9008958FEF9FE060E070E040E050E044
:1004000028EC30E00E94D50180E090E06FEF7FE0C3
:1004100040E050E028EC30E00E94D50180E090E020
:1004200060E070E04FEF5FE028EC30E00E94D50123
:100430008FEF9FE060E070E04FEF5FE028EC30E08E
:100440000E94D50108950F931F9384E061E00E94FC
:100450004C0485E061E00E944C0486E061E00E946B
:100460004C0487E391E060E070E00E94F0000DEB47
:1004700011E0C80140E855E260E070E00E948C02A3
:10048000C8016CE071E00E9495031F910F910895DF
:100490000E9412040E9423020E94FA01FDCF1F92C3
:1004A0000F920FB60F9211242F933F934F935F93A8
:1004B0006F937F938F939F93AF93BF93EF93FF932C
:1004C0004091C600E091B901F091BA01CF010196C7
:1004D00060E870E00E94B9049C018091BB0190919A
:1004E000BC012817390739F0E75CFE4F4083309391
:1004F000BA012093B901FF91EF91BF91AF919F9104
:100500008F917F916F915F914F913F912F910F90BC
:100510000FBE0F901F901895AF92BF92CF92DF92AF
:10052000EF92FF920F931F93CF93DF936C017A01A9
:100530008B01DC011496AD90BC901597CB01BA01EC
:1005400022E030E040E050E00E94EE04205C3D4BB1
:10055000404F5F4FCA01B901A80197010E94EE0404
:10056000C901DA010197A109B109292F3A2F4B2FAF
:10057000552747FD5A950196A11DB11DE501288318
:10058000E601EE81FF8181508083EA85FB85208131
:1005900041E050E0CA010E8402C0880F991F0A94FE
:1005A000E2F7282B2083EA85FB852081CA010F848E
:1005B00002C0880F991F0A94E2F7282B2083EA854E
:1005C000FB858081088802C0440F551F0A94E2F71A
:1005D000842B8083DF91CF911F910F91FF90EF903B
:1005E000DF90CF90BF90AF900895FC01A085B185BA
:1005F00021898C9190E0022E02C0959587950A94EE
:10060000E2F780FFF6CF0484F585E02D608308953E
:1006100086E191E09093BE018093BD0189E391E072
:100620009093C0018093BF0185EC90E09093C2014C
:100630008093C10184EC90E09093C4018093C30146
:1006400080EC90E09093C6018093C50181EC90E02E
:100650009093C8018093C70186EC90E09093CA0103
:100660008093C90184E08093CB0183E08093CC0127
:1006700087E08093CD0185E08093CE0108950F93AC
:100680001F93CF93DF938C01EB0109C02196D80112
:10069000ED91FC910190F081E02DC80109956881F0
:1006A0006623A1F7DF91CF911F910F910895EF92EB
:1006B000FF920F931F93CF93DF938C017B01EA018D
:1006C0000CC0D7016D917D01D801ED91FC91019095
:1006D000F081E02DC80109952197209791F7DF91CE
:1006E000CF911F910F91FF90EF900895DC01ED9154
:1006F000FC910280F381E02D099508950F931F93DB
:100700008C01DC01ED91FC910190F081E02D6DE018
:100710000995D801ED91FC910190F081E02DC8017F
:100720006AE009951F910F9108950F931F938C0113
:100730000E947603C8010E947E031F910F910895C5
:100740001F920F920FB60F9211242F933F938F9306
:100750009F93AF93BF938091D3019091D401A091C7
:10076000D501B091D6013091D7010196A11DB11DDF
:10077000232F2D5F2D3720F02D570196A11DB11D80
:100780002093D7018093D3019093D401A093D501F6
:10079000B093D6018091CF019091D001A091D10169
:1007A000B091D2010196A11DB11D8093CF0190930C
:1007B000D001A093D101B093D201BF91AF919F918D
:1007C0008F913F912F910F900FBE0F901F90189512
:1007D000EF92FF920F931F937B018C018FB7F894D8
:1007E0004091D3015091D4016091D5017091D6010F
:1007F0008FBF2FB7F8948091D3019091D401A0912D
:10080000D501B091D6012FBF841B950BA60BB70B5A
:10081000E816F9060A071B0760F71F910F91FF9072
:10082000EF900895789484B5826084BD84B581602A
:1008300084BD85B5826085BD85B5816085BDEEE6E8
:10084000F0E0808181608083E1E8F0E08081826077
:100850008083808181608083E0E8F0E08081816036
:100860008083E1EBF0E0808184608083E0EBF0E066
:10087000808181608083EAE7F0E08081846080830A
:1008800080818260808380818160808380818068B4
:1008900080831092C1000895282F30E0C901865648
:1008A0009F4FFC0194912A573F4FF901849188236F
:1008B00091F0E82FF0E0EE0FFF1FE859FF4FA591F0
:1008C000B491662329F48C91909589238C93089593
:1008D0008C91892B8C930895482F50E0CA01825542
:1008E0009F4FFC012491CA0186569F4FFC019491B1
:1008F0004A575F4FFA0134913323D1F1222331F16A
:10090000233021F4809180008F7705C0243031F4AA
:10091000809180008F7D8093800018C0213019F471
:1009200084B58F7704C0223021F484B58F7D84BDD7
:100930000DC0263021F48091B0008F7705C027309C
:1009400029F48091B0008F7D8093B000E32FF0E018
:10095000EE0FFF1FEE58FF4FA591B491662329F4C7
:100960008C91909589238C9308958C91892B8C93ED
:10097000089597FB092E07260AD077FD04D049D0A9
:1009800006D000201AF4709561957F4F0895F6F710
:10099000909581959F4F0895A1E21A2EAA1BBB1B2B
:1009A000FD010DC0AA1FBB1FEE1FFF1FA217B3073B
:1009B000E407F50720F0A21BB30BE40BF50B661F51
:1009C000771F881F991F1A9469F760957095809515
:1009D00090959B01AC01BD01CF01089597FB092EB5
:1009E00005260ED057FD04D0D7DF0AD0001C38F4FE
:1009F00050954095309521953F4F4F4F5F4F08954B
:100A0000F6F790958095709561957F4F8F4F9F4F2A
:100A10000895AA1BBB1B51E107C0AA1FBB1FA61745
:100A2000B70710F0A61BB70B881F991F5A95A9F797
:100A300080959095BC01CD010895EE0FFF1F0590A4
:0A0A4000F491E02D0994F894FFCF23
:100A4A00436F6C6F75723A20002C200072656164E6
:0C0A5A00790000000000F5023F03570384
:00000001FF
