:100000000C9461000C947E000C947E000C947E0095
:100010000C947E000C947E000C947E000C947E0068
:100020000C947E000C947E000C947E000C947E0058
:100030000C947E000C947E000C947E000C947E0048
:100040000C94E6020C947E000C947E000C947E00CE
:100050000C947E000C947E000C947E000C947E0028
:100060000C947E000C947E00000000002400270009
:100070002A0000000000250028002B0000000000DE
:1000800023002600290004040404040404040202DA
:100090000202020203030303030301020408102007
:1000A0004080010204081020010204081020000012
:1000B0000007000201000003040600000000000029
:1000C000000011241FBECFEFD8E0DEBFCDBF11E08E
:1000D000A0E0B1E0E6EDFCE002C005900D92A83191
:1000E000B107D9F711E0A8E1B1E001C01D92A13438
:1000F000B107E1F70E94DF020C9469060C9400003E
:100100002F923F924F925F926F927F928F929F9227
:10011000AF92BF92CF92DF92EF92FF920F931F9315
:100120001C013B012A017801442737FD4095542FDB
:10013000CA01B9010E9453055B016C010894E108F2
:10014000F1080027F7FC0095102FC801B7010E94A5
:1001500053059B01AC01C601B5010E94BD044B01D2
:100160005C01F301008110E0B801882777FD8095DC
:10017000982F0E9453056B017C01F201608170E0B1
:10018000601B710B882777FD8095982F0E9453057F
:10019000A50194010E94DF059B01AC01C701B601D6
:1001A0000E9459040E942505F1016083F301018139
:1001B00010E0B801882777FD8095982F0E9453059D
:1001C0006B017C01F201618170E0601B710B88277B
:1001D00077FD8095982F0E945305A50194010E94F8
:1001E000DF059B01AC01C701B6010E9459040E94C2
:1001F0002505F1016183F301028110E0B801882730
:1002000077FD8095982F0E9453056B017C01F201C8
:10021000628170E0601B710B882777FD8095982FB5
:100220000E945305A50194010E94DF059B01AC01CA
:10023000C701B6010E9459040E942505F10162839D
:100240001F910F91FF90EF90DF90CF90BF90AF90F4
:100250009F908F907F906F905F904F903F902F90E6
:1002600008950F931F938C01FC0160818091000120
:1002700070E00E949203F80161818091020170E0B8
:100280000E949203F80162818091040170E00E9453
:1002900092031F910F910895009721F48091060118
:1002A00060E006C08130910549F48091060161E06B
:1002B0000E940B048091080160E00BC08230910520
:1002C00059F48091060160E00E940B0480910801BE
:1002D00061E00E940B040895039751F48091060198
:1002E00061E00E940B048091080161E00E940B0410
:1002F00008950F931F93FC01819191918F010E94AA
:100300004C01C8010E9431011F910F9108952F9255
:100310003F924F925F926F927F928F929F92AF9295
:10032000BF92CF92DF92EF92FF920F931F93DF93D2
:10033000CF93CDB7DEB72C970FB6F894DEBF0FBEC4
:10034000CDBF4C01CB0164E670E00E9442069B01E8
:10035000FE0131968CE0DF011D928A95E9F7D40108
:10036000129683E00D9001928150E1F792E0492EC0
:10037000512C480C591C85E0682E712C680C791C96
:10038000EE24FF241E010894211C311C5901CC24A9
:10039000B7FCC094DC2CC201B101A301970104E6B3
:1003A00010E00E948000C4010E947901C601B501DD
:1003B0000E942E030894E11CF11CB4E6EB16F10434
:1003C00051F72C960FB6F894DEBF0FBECDBFCF917C
:1003D000DF911F910F91FF90EF90DF90CF90BF9032
:1003E000AF909F908F907F906F905F904F903F90D5
:1003F0002F900895DF93CF93CDB7DEB765970FB6F3
:10040000F894DEBF0FBECDBFDE011196E4E1F1E04E
:1004100083E001900D928150E1F7DE011496E1E155
:10042000F1E083E001900D928150E1F7DE01179633
:10043000EEE0F1E083E001900D928150E1F7DE0102
:100440001A96FE01319683E001900D928150E1F7FA
:10045000DE011D96FE01349683E001900D928150DD
:10046000E1F7E8E1F1E088E0DF011D928A95E9F724
:1004700081E090E090931901809318013296DE019B
:100480001A9683E00D9001928150E1F7ADE1B1E061
:10049000FE013D9683E001900D928150E1F7DE016F
:1004A0005096FE01349683E001900D928150E1F761
:1004B000DE015396FE01379683E001900D92815044
:1004C000E1F7E0E2F1E088E0DF011D928A95E9F7CB
:1004D0003296DE01509683E00D9001928150E1F753
:1004E000A5E2B1E0FE01739683E001900D92815088
:1004F000E1F788E191E064E670E00E94870164EF33
:1005000071E080E090E00E942E03ADE1B1E0FE01D9
:10051000379683E001900D928150E1F7A5E2B1E0BA
:10052000FE01319683E001900D928150E1F788E160
:1005300091E064E670E00E94870164EF71E080E082
:1005400090E00E942E03ADE1B1E0FE01319683E020
:1005500001900D928150E1F7A5E2B1E0FE013496E1
:1005600083E001900D928150E1F788E191E064E62B
:1005700070E00E94870164EF71E080E090E00E94EB
:100580002E0365960FB6F894DEBF0FBECDBFCF9198
:10059000DF9108958091060161E00E94EB03809154
:1005A000080161E00E94EB0380910A0161E00E9472
:1005B000EB0380910C0161E00E94EB0308950E941F
:1005C00058030E94CA020E94FA01FDCF1F920F92A7
:1005D0000FB60F9211242F933F938F939F93AF9356
:1005E000BF9380913C0190913D01A0913E01B0915B
:1005F0003F01309140010196A11DB11D232F2D5FB8
:100600002D3720F02D570196A11DB11D20934001DB
:1006100080933C0190933D01A0933E01B0933F0134
:100620008091380190913901A0913A01B0913B013C
:100630000196A11DB11D8093380190933901A093BB
:100640003A01B0933B01BF91AF919F918F913F9140
:100650002F910F900FBE0F901F901895EF92FF9261
:100660000F931F937B018C018FB7F89440913C014D
:1006700050913D0160913E0170913F018FBF2FB7B6
:10068000F89480913C0190913D01A0913E01B09180
:100690003F012FBF841B950BA60BB70BE816F9067D
:1006A0000A071B0760F71F910F91FF90EF900895C5
:1006B000789484B5826084BD84B5816084BD85B53D
:1006C000826085BD85B5816085BDEEE6F0E0808104
:1006D00081608083E1E8F0E08081826080838081B6
:1006E00081608083E0E8F0E0808181608083E1EBDD
:1006F000F0E0808184608083E0EBF0E080818160C5
:100700008083EAE7F0E0808184608083808182607A
:100710008083808181608083808180688083109263
:10072000C10008951F93CF93DF93182FEB0161E071
:100730000E94EB03E12FF0E0E255FF4F84918330FC
:1007400051F480918000806880938000D09389006C
:10075000C09388003CC0843051F480918000806256
:1007600080938000D0938B00C0938A0030C081308A
:1007700039F4209729F184B5806884BDC7BD27C0AE
:10078000823039F42097E1F084B5806284BDC8BD21
:100790001EC0863041F48091B00080688093B00024
:1007A000C093B30014C0873041F48091B0008062E0
:1007B0008093B000C093B4000AC0C038D1051CF4C7
:1007C000812F60E002C0812F61E00E940B04DF9165
:1007D000CF911F910895282F30E0C90186569F4F71
:1007E000FC0194912A573F4FF9018491882391F09D
:1007F000E82FF0E0EE0FFF1FE859FF4FA591B491ED
:10080000662329F48C91909589238C9308958C917B
:10081000892B8C930895482F50E0CA0182559F4F31
:10082000FC012491CA0186569F4FFC0194914A57BE
:100830005F4FFA0134913323D1F1222331F1233078
:1008400021F4809180008F7705C0243031F48091AD
:1008500080008F7D8093800018C0213019F484B50A
:100860008F7704C0223021F484B58F7D84BD0DC004
:10087000263021F48091B0008F7705C0273029F40D
:100880008091B0008F7D8093B000E32FF0E0EE0FF9
:10089000FF1FEE58FF4FA591B491662329F48C9168
:1008A000909589238C9308958C91892B8C9308952E
:1008B0005058BB27AA270ED048C139D130F03ED1BD
:1008C00020F031F49F3F11F41EF42EC10EF4E09598
:1008D000E7FB24C1E92F4AD180F3BA1762077307F7
:1008E0008407950718F071F49EF562C10EF4E09547
:1008F0000B2EBA2FA02D0B01B90190010C01CA01DA
:10090000A0011124FF27591B99F0593F50F4503E84
:1009100068F11A16F040A22F232F342F4427585F76
:10092000F3CF469537952795A795F0405395C9F78E
:100930007EF41F16BA0B620B730B840BBAF0915046
:10094000A1F0FF0FBB1F661F771F881FC2F70EC0E5
:10095000BA0F621F731F841F48F4879577956795B8
:10096000B795F7959E3F08F0B3CF9395880F08F0A1
:100970009927EE0F9795879508950CD0E6C0DED0A5
:1009800040F0D5D030F021F45F3F19F0C7C05111CD
:1009900010C1CAC0EBD098F39923C9F35523B1F322
:1009A000951B550BBB27AA2762177307840738F0DE
:1009B0009F5F5F4F220F331F441FAA1FA9F333D03D
:1009C0000E2E3AF0E0E830D091505040E695001CF1
:1009D000CAF729D0FE2F27D0660F771F881FBB1FAD
:1009E000261737074807AB07B0E809F0BB0B802D87
:1009F000BF01FF2793585F4F2AF09E3F510568F0D3
:100A00008DC0D7C05F3FECF3983EDCF386957795B9
:100A10006795B795F7959F5FC9F7880F911D9695D4
:100A2000879597F90895E1E0660F771F881FBB1F30
:100A3000621773078407BA0720F0621B730B840BDD
:100A4000BA0BEE1F88F7E095089598D088F09F576D
:100A500090F0B92F9927B751A0F0D1F0660F771F0A
:100A6000881F991F1AF0BA95C9F712C0B13081F0EA
:100A70009FD0B1E008959CC0672F782F8827B85F7A
:100A800039F0B93FCCF3869577956795B395D9F74B
:100A90003EF490958095709561957F4F8F4F9F4F55
:100AA0000895E89409C097FB3EF490958095709561
:100AB00061957F4F8F4F9F4F9923A9F0F92F96E9AA
:100AC000BB279395F695879577956795B795F1111F
:100AD000F8CFFAF4BB0F11F460FF1BC06F5F7F4FBC
:100AE0008F4F9F4F16C0882311F096E911C07723CE
:100AF00021F09EE8872F762F05C0662371F096E8D7
:100B0000862F70E060E02AF09A95660F771F881FA5
:100B1000DAF7880F9695879597F9089597F99F6763
:100B200080E870E060E008959FEF80EC0895002475
:100B30000A941616170618060906089500240A9442
:100B400012161306140605060895092E0394000CC8
:100B500011F4882352F0BB0F40F4BF2B11F460FF57
:100B600004C06F5F7F4F8F4F9F4F089557FD905880
:100B7000440F551F59F05F3F71F04795880F97FB61
:100B8000991F61F09F3F79F087950895121613061B
:100B90001406551FF2CF4695F1DF08C0161617064A
:100BA0001806991FF1CF869571056105089408957F
:100BB000E894BB2766277727CB0197F908950BD0D8
:100BC000C4CFB5DF28F0BADF18F0952309F0A6CF1F
:100BD000ABCF1124EECFCADFA0F3959FD1F3950FD1
:100BE00050E0551F629FF001729FBB27F00DB11DB1
:100BF000639FAA27F00DB11DAA1F649F6627B00D41
:100C0000A11D661F829F2227B00DA11D621F739F29
:100C1000B00DA11D621F839FA00D611D221F749F37
:100C20003327A00D611D231F849F600D211D822F7E
:100C3000762F6A2F11249F5750408AF0E1F08823C5
:100C40004AF0EE0FFF1FBB1F661F771F881F9150D2
:100C50005040A9F79E3F510570F060CFAACF5F3F8B
:100C6000ECF3983EDCF3869577956795B795F79505
:100C7000E7959F5FC1F7FE2B880F911D969587958D
:100C800097F9089597FB092E07260AD077FD04D01F
:100C90000CD006D000201AF4709561957F4F08950E
:100CA000F6F7909581959F4F0895AA1BBB1B51E1C4
:100CB00007C0AA1FBB1FA617B70710F0A61BB70BCC
:100CC000881F991F5A95A9F780959095BC01CD0171
:060CD0000895F894FFCF27
:100CD60009000A000B0002000300040005000000E2
:080CE600FF00FF00FF00000009
:00000001FF
