:100000000C9462000C948A000C948A000C948A0070
:100010000C948A000C948A000C948A000C948A0038
:100020000C948A000C948A000C948A000C948A0028
:100030000C948A000C948A000C948A000C948A0018
:100040000C94D8030C948A000C94B1020C948A008E
:100050000C948A000C948A000C948A000C948A00F8
:100060000C948A000C948A000000000024002700F1
:100070002A0000000000250028002B0000000000DE
:1000800023002600290004040404040404040202DA
:100090000202020203030303030301020408102007
:1000A0004080010204081020010204081020000012
:1000B0000007000201000003040600000000000029
:1000C00000006A0311241FBECFEFD8E0DEBFCDBF12
:1000D00011E0A0E0B1E0ECEBFFE002C005900D9272
:1000E000A631B107D9F711E0A6E1B1E001C01D9238
:1000F000A53BB107E1F710E0C4ECD0E004C02297C3
:10010000FE010E94A107C23CD107C9F70E94AA02C2
:100110000C94DC070C940000A0E0B0E0E2E9F0E011
:100120000C94AD07EC01A880B980CA80DB80A114D3
:10013000B104C104D10441F484E2A82E89EDB82EA3
:100140008BE5C82E87E0D82EC601B5012DE133EF2F
:1001500041E050E00E94700727EA31E440E050E0BF
:100160000E941C077B018C01C601B5012DE133EF14
:1001700041E050E00E947007CA01B9012CEE34EF53
:100180004FEF5FEF0E941C076E0D7F1D801F911FB8
:1001900097FF04C061507040804090486883798325
:1001A0008A839B839B01AC015F77B901CA01CDB7FC
:1001B000DEB7EAE00C94C9070E948C00089580E045
:1001C00091E00E948C0008956093000170930101FA
:1001D000809302019093030108950F931F93982F2A
:1001E000162F042F80910401692F0E94980480919A
:1001F0000601612F0E94980480910801602F0E94DF
:1002000098041F910F910895CF92DF92EF92FF9281
:100210000F931F93CF93DF937C018A01EB01C12CD5
:100220008FEFD82EC60ED71E80E090E01E141F045C
:1002300014F481E090E00894E108F10860E070E0D7
:100240001C161D0614F461E070E0219740E050E0B8
:100250001016110614F441E050E0015010400E94C5
:10026000ED00CC15DD0501F7DF91CF911F910F91C6
:10027000FF90EF90DF90CF9008952F923F924F9292
:100280005F926F927F928F929F92AF92BF92CF9226
:10029000DF92EF92FF920F931F93DF93CF93CDB72F
:1002A000DEB7A0970FB6F894DEBF0FBECDBFDA82DF
:1002B000C98218A21F8E5601CC24B7FCC094DC2C36
:1002C000AB82BC82CD82DE825C01CC24B7FCC094C0
:1002D000DC2CAF82B886C986DA86281B390BC901A7
:1002E000AA2797FDA095BA2F8B879C87AD87BE87DD
:1002F0005B01CC24B7FCC094DC2CAF86B88AC98AD9
:10030000DA8A061B170BC801AA2797FDA095BA2FFA
:100310008B8B9C8BAD8BBE8B5A01CC24B7FCC094CD
:10032000DC2CAF8AB88EC98EDA8EE41AF50AC701C2
:10033000AA2797FDA095BA2F8B8F9C8FAD8FBE8F6C
:1003400077C0AF8DB8A1BD01882777FD8095982F24
:100350000E942D067B018C016B817C818D819E81A9
:100360000E942D069B01AC01C801B7010E949205B5
:100370005B016C016F81788589859A850E942D06C5
:100380007B018C016B857C858D859E850E942D0669
:10039000A60195010E94B9069B01AC01C801B701F5
:1003A0000E942E050E94FA051B012C016F85788999
:1003B00089899A890E942D067B018C016B897C8931
:1003C0008D899E890E942D06A60195010E94B9067D
:1003D0009B01AC01C801B7010E942E050E94FA05DD
:1003E0003B014C016F89788D898D9A8D0E942D0675
:1003F0007B018C016B8D7C8D8D8D9E8D0E942D06D9
:10040000A60195010E94B9069B01AC01C801B70184
:100410000E942E050E94FA059B01AC01C101B301A7
:10042000A9010E940401EF8DF8A13196F8A3EF8F86
:10043000AF8CB8A0C980DA80AC14BD040CF481CFB5
:10044000A0960FB6F894DEBF0FBECDBFCF91DF915F
:100450001F910F91FF90EF90DF90CF90BF90AF90E2
:100460009F908F907F906F905F904F903F902F90D4
:1004700008956F927F928F929F92AF92BF92CF9288
:10048000DF92EF92FF920F931F93CF93DF9300E0E1
:1004900010E0C0E0D0E0EE24FF2460E070E080E0F7
:1004A00090E02FEF30E040E050E00E940705762E0C
:1004B000672E60E070E080E090E02FEF30E040E0F9
:1004C00050E00E940705962E872E60E070E080E0E5
:1004D00090E02FEF30E040E050E00E940705B62E9C
:1004E000A72EC801BE01A701272D362D092D182DD5
:1004F000EB2CFA2CE0E2CE2EE3E0DE2E0E943D0152
:100500002B2D3A2DC9017C01292D382DC901EC0173
:10051000272D362DC9018C01C0CF8091040161E0E7
:100520000E9478048091060161E00E947804809125
:10053000080161E00E9478048AE991E040E855E210
:1005400060E070E00E94EE0280E00E945A040E9487
:10055000250508950E9420040E948D020E94390200
:10056000FDCF1F920F920FB60F9211242F933F933E
:100570004F935F936F937F938F939F93AF93BF93AB
:10058000EF93FF934091C600E0919601F09197019F
:10059000CF01019660E870E00E943B079C018091CA
:1005A0009801909199012817390739F0EA5EFE4FBA
:1005B00040833093970120939601FF91EF91BF9173
:1005C000AF919F918F917F916F915F914F913F91EB
:1005D0002F910F900FBE0F901F901895AF92BF9262
:1005E000CF92DF92EF92FF920F931F93CF93DF93FF
:1005F0006C017A018B01DC011496AD90BC901597CB
:10060000CB01BA0122E030E040E050E00E947007E8
:10061000205C3D4B404F5F4FCA01B901A8019701D3
:100620000E947007C901DA010197A109B109292FB8
:100630003A2F4B2F552747FD5A950196A11DB11D05
:10064000E5012883E601EE81FF8181508083EA8500
:10065000FB85208141E050E0CA010E8402C0880F72
:10066000991F0A94E2F7282B2083EA85FB852081D5
:10067000CA010F8402C0880F991F0A94E2F7282B41
:100680002083EA85FB858081088802C0440F551FBE
:100690000A94E2F7842B8083DF91CF911F910F9111
:1006A000FF90EF90DF90CF90BF90AF900895FC0146
:1006B000A085B18521898C9190E0022E02C095958C
:1006C00087950A94E2F780FFF6CF0484F585E02D44
:1006D000608308958FE091E090939B0180939A014D
:1006E00086E191E090939D0180939C0185EC90E0E0
:1006F00090939F0180939E0184EC90E09093A101E0
:100700008093A00180EC90E09093A3018093A201DC
:1007100081EC90E09093A5018093A40186EC90E099
:100720009093A7018093A60184E08093A80183E0C1
:100730008093A90187E08093AA0185E08093AB01B3
:1007400008950F931F93CF93DF938C01EB0109C0A2
:100750002196D801ED91FC910190F081E02DC80126
:10076000099568816623A1F7DF91CF911F910F91C1
:100770000895EF92FF920F931F93CF93DF938C0115
:100780007B01EA010CC0D7016D917D01D801ED918B
:10079000FC910190F081E02DC801099521972097E7
:1007A00091F7DF91CF911F910F91FF90EF900895F6
:1007B0001F920F920FB60F9211242F933F938F9396
:1007C0009F93AF93BF938091B0019091B101A0919D
:1007D000B201B091B3013091B4010196A11DB11DD8
:1007E000232F2D5F2D3720F02D570196A11DB11D10
:1007F0002093B4018093B0019093B101A093B20112
:10080000B093B3018091AC019091AD01A091AE0184
:10081000B091AF010196A11DB11D8093AC019093E1
:10082000AD01A093AE01B093AF01BF91AF919F9185
:100830008F913F912F910F900FBE0F901F901895A1
:10084000789484B5826084BD84B5816084BD85B5AB
:10085000826085BD85B5816085BDEEE6F0E0808172
:1008600081608083E1E8F0E0808182608083808124
:1008700081608083E0E8F0E0808181608083E1EB4B
:10088000F0E0808184608083E0EBF0E08081816033
:100890008083EAE7F0E080818460808380818260E9
:1008A00080838081816080838081806880831092D2
:1008B000C1000895877090910A019295990F990F40
:1008C000907C982B90937C0080917A008064809338
:1008D0007A0080917A0086FDFCCF209178004091CB
:1008E0007900942F80E030E0282B392BC90108953E
:1008F000282F30E0C90186569F4FFC0194912A575A
:100900003F4FF9018491882391F0E82FF0E0EE0F3A
:10091000FF1FE859FF4FA591B491662329F48C91EC
:10092000909589238C9308958C91892B8C930895AD
:10093000482F50E0CA0182559F4FFC012491CA0103
:1009400086569F4FFC0194914A575F4FFA013491AC
:100950003323D1F1222331F1233021F4809180001F
:100960008F7705C0243031F4809180008F7D809393
:10097000800018C0213019F484B58F7704C022306C
:1009800021F484B58F7D84BD0DC0263021F4809183
:10099000B0008F7705C0273029F48091B0008F7D9B
:1009A0008093B000E32FF0E0EE0FFF1FEE58FF4FF3
:1009B000A591B491662329F48C91909589238C9309
:1009C00008958C91892B8C930895EF92FF920F9349
:1009D0001F937B018C01611571058105910529F437
:1009E00020E030E040E050E00BC00E94DF00A801B2
:1009F00097010E947007AC01CB01DA019C01AD01A7
:100A0000B901CA011F910F91FF90EF900895EF92E5
:100A1000FF920F931F937B018C016217730784076A
:100A2000950764F4261B370B480B590BCA01B90113
:100A30000E94E504E60EF71E081F191FB701C80142
:100A40001F910F91FF90EF900895009729F0BC013E
:100A500080E090E00E94E40008955058BB27AA2748
:100A60000ED04DC13ED130F043D120F031F49F3F44
:100A700011F41EF433C10EF4E095E7FB29C1E92F10
:100A80004FD180F3BA17620773078407950718F0F0
:100A900071F49EF567C10EF4E0950B2EBA2FA02DD0
:100AA0000B01B90190010C01CA01A0011124FF271B
:100AB000591B99F0593F50F4503E68F11A16F04016
:100AC000A22F232F342F4427585FF3CF4695379515
:100AD0002795A795F0405395C9F77EF41F16BA0BDA
:100AE000620B730B840BBAF09150A1F0FF0FBB1F88
:100AF000661F771F881FC2F70EC0BA0F621F731FD1
:100B0000841F48F4879577956795B795F7959E3F2D
:100B100008F0B3CF9395880F08F09927EE0F9795BB
:100B2000879508950CD0EBC0E3D040F0DAD030F0D8
:100B300021F45F3F19F0CCC0511115C1CFC0F0D0E6
:100B400098F39923C9F35523B1F3951B550BBB2794
:100B5000AA2762177307840738F09F5F5F4F220F41
:100B6000331F441FAA1FA9F333D00E2E3AF0E0E83A
:100B700030D091505040E695001CCAF729D0FE2F86
:100B800027D0660F771F881FBB1F26173707480718
:100B9000AB07B0E809F0BB0B802DBF01FF279358CE
:100BA0005F4F2AF09E3F510568F092C0DCC05F3F66
:100BB000ECF3983EDCF3869577956795B795F795B6
:100BC0009F5FC9F7880F911D9695879597F90895AE
:100BD000E1E0660F771F881FBB1F6217730784074A
:100BE000BA0720F0621B730B840BBA0BEE1F88F759
:100BF000E095089504D06894B111B5C0089598D0D7
:100C000088F09F5790F0B92F9927B751A0F0D1F0F5
:100C1000660F771F881F991F1AF0BA95C9F712C07F
:100C2000B13081F09FD0B1E008959CC0672F782F3C
:100C30008827B85F39F0B93FCCF3869577956795EB
:100C4000B395D9F73EF490958095709561957F4F57
:100C50008F4F9F4F0895E89409C097FB3EF49095FD
:100C60008095709561957F4F8F4F9F4F9923A9F085
:100C7000F92F96E9BB279395F69587957795679514
:100C8000B795F111F8CFFAF4BB0F11F460FF1BC058
:100C90006F5F7F4F8F4F9F4F16C0882311F096E9EB
:100CA00011C0772321F09EE8872F762F05C0662399
:100CB00071F096E8862F70E060E02AF09A95660F52
:100CC000771F881FDAF7880F9695879597F908950B
:100CD00097F99F6780E870E060E008959FEF80ECEF
:100CE000089500240A941616170618060906089592
:100CF00000240A9412161306140605060895092EF8
:100D00000394000C11F4882352F0BB0F40F4BF2B66
:100D100011F460FF04C06F5F7F4F8F4F9F4F0895A6
:100D200057FD9058440F551F59F05F3F71F047959C
:100D3000880F97FB991F61F09F3F79F08795089581
:100D4000121613061406551FF2CF4695F1DF08C0A0
:100D5000161617061806991FF1CF869571056105BD
:100D600008940895E894BB2766277727CB0197F965
:100D700008950BD0C4CFB5DF28F0BADF18F0952363
:100D800009F0A6CFABCF1124EECFCADFA0F3959F19
:100D9000D1F3950F50E0551F629FF001729FBB2762
:100DA000F00DB11D639FAA27F00DB11DAA1F649F0E
:100DB0006627B00DA11D661F829F2227B00DA11DC1
:100DC000621F739FB00DA11D621F839FA00D611D47
:100DD000221F749F3327A00D611D231F849F600D68
:100DE000211D822F762F6A2F11249F5750408AF0A1
:100DF000E1F088234AF0EE0FFF1FBB1F661F771F2D
:100E0000881F91505040A9F79E3F510570F060CF68
:100E1000AACF5F3FECF3983EDCF386957795679514
:100E2000B795F795E7959F5FC1F7FE2B880F911D4A
:100E30009695879597F90895629FD001739FF00169
:100E4000829FE00DF11D649FE00DF11D929FF00D5A
:100E5000839FF00D749FF00D659FF00D9927729F91
:100E6000B00DE11DF91F639FB00DE11DF91FBD011C
:100E7000CF011124089597FB092E07260AD077FD8C
:100E800004D049D006D000201AF4709561957F4FA8
:100E90000895F6F7909581959F4F0895A1E21A2E37
:100EA000AA1BBB1BFD010DC0AA1FBB1FEE1FFF1F0E
:100EB000A217B307E407F50720F0A21BB30BE40B5E
:100EC000F50B661F771F881F991F1A9469F76095A5
:100ED0007095809590959B01AC01BD01CF0108955F
:100EE00097FB092E05260ED057FD04D0D7DF0AD078
:100EF000001C38F450954095309521953F4F4F4F49
:100F00005F4F0895F6F790958095709561957F4FA6
:100F10008F4F9F4F0895AA1BBB1B51E107C0AA1F0B
:100F2000BB1FA617B70710F0A61BB70B881F991F8A
:100F30005A95A9F780959095BC01CD010895EE0FC3
:100F4000FF1F0590F491E02D09942F923F924F924C
:100F50005F926F927F928F929F92AF92BF92CF9249
:100F6000DF92EF92FF920F931F93CF93DF93CDB752
:100F7000DEB7CA1BDB0B0FB6F894DEBF0FBECDBFCA
:100F800009942A88398848885F846E847D848C849B
:100F90009B84AA84B984C884DF80EE80FD800C81A4
:100FA0001B81AA81B981CE0FD11D0FB6F894DEBF87
:0C0FB0000FBECDBFED010895F894FFCFF7
:100FBC0001000000020003000400010000000057C3
:060FCC0003A103B90300BC
:00000001FF
