:100000000C9461000C947E000C947E000C947E0095
:100010000C947E000C947E000C947E000C947E0068
:100020000C947E000C947E000C947E000C947E0058
:100030000C947E000C947E000C947E000C947E0048
:100040000C9472010C947E000C947E000C947E0043
:100050000C947E000C947E000C947E000C947E0028
:100060000C947E000C947E00000000002400270009
:100070002A0000000000250028002B0000000000DE
:1000800023002600290004040404040404040202DA
:100090000202020203030303030301020408102007
:1000A0004080010204081020010204081020000012
:1000B0000007000201000003040600000000000029
:1000C000000011241FBECFEFD8E0DEBFCDBF11E08E
:1000D000A0E0B1E0EAE1F5E002C005900D92A830A1
:1000E000B107D9F711E0A8E0B1E001C01D92A1313C
:1000F000B107E1F70E946B010C948B020C94000095
:100100000F931F93982F162F042F80910001692FB2
:100110000E943E0280910201612F0E943E02809166
:100120000401602F0E943E02609106017091070158
:10013000882777FD8095982F0E94BA018091000151
:1001400060E00E943E028091020160E00E943E0257
:100150008091040160E00E943E021F910F9108957A
:1001600081E090E060E070E040E050E00E948000BC
:1001700080E090E061E070E040E050E00E948000AC
:1001800080E090E060E070E041E050E00E9480009C
:100190006091060170910701882777FD8095982F5F
:1001A0000E94BA0181E090E060E070E040E050E041
:1001B0000E94800081E090E061E070E040E050E06B
:1001C0000E94800081E090E060E070E041E050E05B
:1001D0000E9480006091060170910701882777FDD9
:1001E0008095982F0E94BA0181E090E061E070E074
:1001F00040E050E00E94800080E090E061E070E02C
:1002000040E050E00E94800080E090E061E070E01B
:1002100041E050E00E94800060910601709107016A
:10022000882777FD8095982F0E94BA0181E090E0A1
:1002300060E070E041E050E00E94800080E090E0EB
:1002400061E070E041E050E00E94800080E090E0DA
:1002500060E070E041E050E00E94800060910601A3
:1002600070910701882777FD8095982F0E94BA0129
:1002700081E090E061E070E041E050E00E948000A9
:1002800081E090E061E070E041E050E00E94800099
:1002900081E090E061E070E041E050E00E94800089
:1002A0006091060170910701882777FD8095982F4E
:1002B0000E94BA0108958091000161E00E941E022F
:1002C0008091020161E00E941E028091040161E0C0
:1002D0000E941E0208950E94E4010E945B010E9498
:1002E000B000FDCF1F920F920FB60F9211242F93E3
:1002F0003F938F939F93AF93BF9380910C01909105
:100300000D01A0910E01B0910F01309110010196E5
:10031000A11DB11D232F2D5F2D3720F02D570196E4
:10032000A11DB11D2093100180930C0190930D012C
:10033000A0930E01B0930F018091080190910901E3
:10034000A0910A01B0910B010196A11DB11D8093EE
:10035000080190930901A0930A01B0930B01BF918A
:10036000AF919F918F913F912F910F900FBE0F9062
:100370001F901895EF92FF920F931F937B018C01B2
:100380008FB7F89440910C0150910D0160910E01CE
:1003900070910F018FBF2FB7F89480910C0190914D
:1003A0000D01A0910E01B0910F012FBF841B950B81
:1003B000A60BB70BE816F9060A071B0760F71F9193
:1003C0000F91FF90EF900895789484B5826084BD7A
:1003D00084B5816084BD85B5826085BD85B5816049
:1003E00085BDEEE6F0E0808181608083E1E8F0E0A9
:1003F000808182608083808181608083E0E8F0E09A
:10040000808181608083E1EBF0E080818460808383
:10041000E0EBF0E0808181608083EAE7F0E08081BA
:10042000846080838081826080838081816080831A
:100430008081806880831092C1000895282F30E069
:10044000C90186569F4FFC0194912A573F4FF901ED
:100450008491882391F0E82FF0E0EE0FFF1FE85918
:10046000FF4FA591B491662329F48C91909589232F
:100470008C9308958C91892B8C930895482F50E08C
:10048000CA0182559F4FFC012491CA0186569F4F95
:10049000FC0194914A575F4FFA0134913323D1F113
:1004A000222331F1233021F4809180008F7705C021
:1004B000243031F4809180008F7D8093800018C0BB
:1004C000213019F484B58F7704C0223021F484B52B
:1004D0008F7D84BD0DC0263021F48091B0008F77D0
:1004E00005C0273029F48091B0008F7D8093B00043
:1004F000E32FF0E0EE0FFF1FEE58FF4FA591B491F0
:10050000662329F48C91909589238C9308958C917E
:0A051000892B8C930895F894FFCF17
:08051A00040005000600C80002
:00000001FF
