:100000000C9461000C947E000C947E000C947E0095
:100010000C947E000C947E000C947E000C947E0068
:100020000C947E000C947E000C947E000C947E0058
:100030000C947E000C947E000C947E000C947E0048
:100040000C94E6020C947E000C947E000C947E00CE
:100050000C947E000C947E000C947E000C947E0028
:100060000C947E000C947E00000000002400270009
:100070002A0000000000250028002B0000000000DE
:1000800023002600290004040404040404040202DA
:100090000202020203030303030301020408102007
:1000A0004080010204081020010204081020000012
:1000B0000007000201000003040600000000000029
:1000C000000011241FBECFEFD8E0DEBFCDBF11E08E
:1000D000A0E0B1E0E6EDFCE002C005900D92AC308E
:1000E000B107D9F711E0ACE0B1E001C01D92A53134
:1000F000B107E1F70E94E1020C9469060C9400003C
:100100000F931F938C01FC016681808170E00E9437
:100110009203F8016781828170E00E949203F801E6
:100120006085848170E00E9492031F910F91089571
:100130002F923F924F925F926F927F928F929F92F7
:10014000AF92BF92CF92DF92EF92FF920F931F93E5
:10015000DF93CF93CDB7DEB76B970FB6F894DEBFC2
:100160000FBECDBF4C01042F4983E52E5A83C62E06
:100170006B83C90164E670E00E944206D4011696C2
:100180008C91169717962C91179718964C91662478
:10019000772490E01C01442437FC4094542C2C829A
:1001A0003D824E825F8210E0081B190BC801AA270E
:1001B00097FDA095BA2F88879987AA87BB8730E0DB
:1001C0001901442437FC4094542C2C863D864E86DD
:1001D0005F86FF24E21AF30AC701AA2797FDA095BC
:1001E000BA2F888B998BAA8BBB8B50E01A014424C1
:1001F00037FC4094542C2C8A3D8A4E8A5F8ADD2439
:10020000C41AD50AC601AA2797FDA095BA2F888FD0
:10021000998FAA8FBB8F1B01442437FC4094542C28
:10022000B301882777FD8095982F0E94530520E021
:1002300030E046EC52E40E94BD045B016C016C812D
:100240007D818E819F810E9453057B018C01688591
:1002500079858A859B850E945305A60195010E9498
:10026000DF059B01AC01C801B7010E9459040E943F
:100270002505D40116966C936C857D858E859F85AA
:100280000E9453057B018C01688979898A899B8941
:100290000E945305A60195010E94DF059B01AC0158
:1002A000C801B7010E9459040E942505F401678323
:1002B0006C897D898E899F890E9453057B018C0101
:1002C000688D798D8A8D9B8D0E945305A6019501BD
:1002D0000E94DF059B01AC01C801B7010E945904CF
:1002E0000E942505D40118966C93C4010E948000D9
:1002F000C201B1010E942E030894611C711CB4E676
:100300006B16710409F08CCF6B960FB6F894DEBFB4
:100310000FBECDBFCF91DF911F910F91FF90EF9056
:10032000DF90CF90BF90AF909F908F907F906F9015
:100330005F904F903F902F900895CF92DF92EF9271
:100340000F93DF93CF93CDB7DEB72C970FB6F8940A
:10035000DEBF0FBECDBF722F502F9601DE01149667
:1003600099E0FD0111929A95E9F7E0910001F09171
:100370000101FD83EC83E0910201F0910301FF8311
:10038000EE83E0910401F0910501F987E8874C873D
:100390006B878A87EB820A837983CD01472F6E2D85
:1003A0000E9498002C960FB6F894DEBF0FBECDBF0A
:1003B000CF91DF910F91EF90DF90CF900895CF9282
:1003C000DF92EF92FF920F931F938FEF90E060E028
:1003D00070E040E050E020E030E00FEF10E0EE246D
:1003E000FF24A0E2CA2EA3E0DA2E0E949D0180E045
:1003F00090E06FEF70E040E050E02FEF30E0FFEF73
:10040000EF2EF12C0E949D018FEF90E06FEF70E0D6
:100410004FEF50E02FEF30E00E949D018FEF90E012
:100420006FEF70E04FEF50E020E030E0EE24FF246B
:100430000E949D0180E090E06FEF70E040E050E0AE
:1004400020E030E00E949D0180E090E06FEF70E0DE
:1004500040E050E020E030E000E010E00E949D012C
:1004600080E090E060E070E040E050E020E030E0CC
:100470000E949D0180E090E060E070E040E050E08C
:1004800020E030E00FEF10E00E949D0180E090E05E
:100490006FEF70E040E050E020E030E00E949D010E
:1004A00080E090E06FEF70E040E050E020E030E06E
:1004B00000E010E0EFEFEE2EF12C0E949D0180E0B5
:1004C00090E060E070E04FEF50E02FEF30E0EE247E
:1004D000FF240E949D011F910F91FF90EF90DF90EC
:1004E000CF9008950F931F93DF93CF93CDB7DEB7CF
:1004F0002F970FB6F894DEBF0FBECDBFDE01119669
:10050000E9E0F1E083E001900D928150E1F7DE0136
:100510001496E6E0F1E083E001900D928150E1F75E
:10052000FE01379689E0DF011D928A95E9F78091F7
:1005300000019091010198878F8380910201909131
:1005400003019A87898780910401909105019C8716
:100550008B87DE011D96FE01319683E001900D929E
:100560008150E1F764EF71E080E090E00E942E039B
:100570008E01095F1F4FC8014C815D816E8124E6A9
:1005800030E00E94980064EF71E080E090E00E940B
:100590002E03C80149815A816B8124E630E00E9414
:1005A00098002F960FB6F894DEBF0FBECDBFCF9147
:1005B000DF911F910F9108950E9472020E94DF0146
:1005C00008950E9458030E94DC02FDCF1F920F92F3
:1005D0000FB60F9211242F933F938F939F93AF9356
:1005E000BF938091100190911101A0911201B091DF
:1005F0001301309114010196A11DB11D232F2D5F10
:100600002D3720F02D570196A11DB11D2093140107
:100610008093100190931101A0931201B0931301E4
:1006200080910C0190910D01A0910E01B0910F01EC
:100630000196A11DB11D80930C0190930D01A09313
:100640000E01B0930F01BF91AF919F918F913F9198
:100650002F910F900FBE0F901F901895EF92FF9261
:100660000F931F937B018C018FB7F8944091100179
:100670005091110160911201709113018FBF2FB73A
:10068000F8948091100190911101A0911201B09104
:1006900013012FBF841B950BA60BB70BE816F906A9
:1006A0000A071B0760F71F910F91FF90EF900895C5
:1006B000789484B5826084BD84B5816084BD85B53D
:1006C000826085BD85B5816085BDEEE6F0E0808104
:1006D00081608083E1E8F0E08081826080838081B6
:1006E00081608083E0E8F0E0808181608083E1EBDD
:1006F000F0E0808184608083E0EBF0E080818160C5
:100700008083EAE7F0E0808184608083808182607A
:100710008083808181608083808180688083109263
:10072000C10008951F93CF93DF93182FEB0161E071
:100730000E94EB03E12FF0E0E255FF4F84918330FC
:1007400051F480918000806880938000D09389006C
:10075000C09388003CC0843051F480918000806256
:1007600080938000D0938B00C0938A0030C081308A
:1007700039F4209729F184B5806884BDC7BD27C0AE
:10078000823039F42097E1F084B5806284BDC8BD21
:100790001EC0863041F48091B00080688093B00024
:1007A000C093B30014C0873041F48091B0008062E0
:1007B0008093B000C093B4000AC0C038D1051CF4C7
:1007C000812F60E002C0812F61E00E940B04DF9165
:1007D000CF911F910895282F30E0C90186569F4F71
:1007E000FC0194912A573F4FF9018491882391F09D
:1007F000E82FF0E0EE0FFF1FE859FF4FA591B491ED
:10080000662329F48C91909589238C9308958C917B
:10081000892B8C930895482F50E0CA0182559F4F31
:10082000FC012491CA0186569F4FFC0194914A57BE
:100830005F4FFA0134913323D1F1222331F1233078
:1008400021F4809180008F7705C0243031F48091AD
:1008500080008F7D8093800018C0213019F484B50A
:100860008F7704C0223021F484B58F7D84BD0DC004
:10087000263021F48091B0008F7705C0273029F40D
:100880008091B0008F7D8093B000E32FF0E0EE0FF9
:10089000FF1FEE58FF4FA591B491662329F48C9168
:1008A000909589238C9308958C91892B8C9308952E
:1008B0005058BB27AA270ED048C139D130F03ED1BD
:1008C00020F031F49F3F11F41EF42EC10EF4E09598
:1008D000E7FB24C1E92F4AD180F3BA1762077307F7
:1008E0008407950718F071F49EF562C10EF4E09547
:1008F0000B2EBA2FA02D0B01B90190010C01CA01DA
:10090000A0011124FF27591B99F0593F50F4503E84
:1009100068F11A16F040A22F232F342F4427585F76
:10092000F3CF469537952795A795F0405395C9F78E
:100930007EF41F16BA0B620B730B840BBAF0915046
:10094000A1F0FF0FBB1F661F771F881FC2F70EC0E5
:10095000BA0F621F731F841F48F4879577956795B8
:10096000B795F7959E3F08F0B3CF9395880F08F0A1
:100970009927EE0F9795879508950CD0E6C0DED0A5
:1009800040F0D5D030F021F45F3F19F0C7C05111CD
:1009900010C1CAC0EBD098F39923C9F35523B1F322
:1009A000951B550BBB27AA2762177307840738F0DE
:1009B0009F5F5F4F220F331F441FAA1FA9F333D03D
:1009C0000E2E3AF0E0E830D091505040E695001CF1
:1009D000CAF729D0FE2F27D0660F771F881FBB1FAD
:1009E000261737074807AB07B0E809F0BB0B802D87
:1009F000BF01FF2793585F4F2AF09E3F510568F0D3
:100A00008DC0D7C05F3FECF3983EDCF386957795B9
:100A10006795B795F7959F5FC9F7880F911D9695D4
:100A2000879597F90895E1E0660F771F881FBB1F30
:100A3000621773078407BA0720F0621B730B840BDD
:100A4000BA0BEE1F88F7E095089598D088F09F576D
:100A500090F0B92F9927B751A0F0D1F0660F771F0A
:100A6000881F991F1AF0BA95C9F712C0B13081F0EA
:100A70009FD0B1E008959CC0672F782F8827B85F7A
:100A800039F0B93FCCF3869577956795B395D9F74B
:100A90003EF490958095709561957F4F8F4F9F4F55
:100AA0000895E89409C097FB3EF490958095709561
:100AB00061957F4F8F4F9F4F9923A9F0F92F96E9AA
:100AC000BB279395F695879577956795B795F1111F
:100AD000F8CFFAF4BB0F11F460FF1BC06F5F7F4FBC
:100AE0008F4F9F4F16C0882311F096E911C07723CE
:100AF00021F09EE8872F762F05C0662371F096E8D7
:100B0000862F70E060E02AF09A95660F771F881FA5
:100B1000DAF7880F9695879597F9089597F99F6763
:100B200080E870E060E008959FEF80EC0895002475
:100B30000A941616170618060906089500240A9442
:100B400012161306140605060895092E0394000CC8
:100B500011F4882352F0BB0F40F4BF2B11F460FF57
:100B600004C06F5F7F4F8F4F9F4F089557FD905880
:100B7000440F551F59F05F3F71F04795880F97FB61
:100B8000991F61F09F3F79F087950895121613061B
:100B90001406551FF2CF4695F1DF08C0161617064A
:100BA0001806991FF1CF869571056105089408957F
:100BB000E894BB2766277727CB0197F908950BD0D8
:100BC000C4CFB5DF28F0BADF18F0952309F0A6CF1F
:100BD000ABCF1124EECFCADFA0F3959FD1F3950FD1
:100BE00050E0551F629FF001729FBB27F00DB11DB1
:100BF000639FAA27F00DB11DAA1F649F6627B00D41
:100C0000A11D661F829F2227B00DA11D621F739F29
:100C1000B00DA11D621F839FA00D611D221F749F37
:100C20003327A00D611D231F849F600D211D822F7E
:100C3000762F6A2F11249F5750408AF0E1F08823C5
:100C40004AF0EE0FFF1FBB1F661F771F881F9150D2
:100C50005040A9F79E3F510570F060CFAACF5F3F8B
:100C6000ECF3983EDCF3869577956795B795F79505
:100C7000E7959F5FC1F7FE2B880F911D969587958D
:100C800097F9089597FB092E07260AD077FD04D01F
:100C90000CD006D000201AF4709561957F4F08950E
:100CA000F6F7909581959F4F0895AA1BBB1B51E1C4
:100CB00007C0AA1FBB1FA617B70710F0A61BB70BCC
:100CC000881F991F5A95A9F780959095BC01CD0171
:060CD0000895F894FFCF27
:0C0CD60009000A000B000000FFFF0000F6
:00000001FF
