:100000000C9435000C945D000C945D000C945D0024
:100010000C945D000C945D000C945D000C945D00EC
:100020000C945D000C945D000C945D000C945D00DC
:100030000C945D000C945D000C945D000C945D00CC
:100040000C9403030C945D000C94DE000C945D0092
:100050000C945D000C945D000C945D000C945D00AC
:100060000C945D000C945D00970111241FBECFEF2E
:10007000D8E0DEBFCDBF11E0A0E0B1E0E6E3F8E0FC
:1000800002C005900D92A432B107D9F711E0A4E2A5
:10009000B1E001C01D92A33CB107E1F710E0CAE650
:1000A000D0E004C02297FE010E941504C836D10793
:1000B000C9F70E94D7000C9419040C94000088EA38
:1000C00091E040E855E260E070E00E941B01089575
:1000D0008EE480937C0088EA91E060E071E00E9409
:1000E000050288EA91E046E050E060E070E02AE036
:1000F00030E00E94F80288EA91E068E071E00E9436
:10010000050240917C0050E060E070E088EA91E0F8
:100110002AE030E00E94F80262E070E080E090E0C7
:100120000E944B0380917A00806480937A0088EA71
:1001300091E060E171E00E94050240917A0050E098
:1001400060E070E088EA91E02AE030E00E94F80286
:1001500080917A0086FDFCCF8091780090E0A0E04D
:10016000B0E060917900362F20E0442737FD4095BC
:10017000542F282B392B4A2B5B2B60E070E381E155
:1001800090E00E94E403CA01B90108950E9468004A
:10019000AB01BC0188EA91E02AE030E00E94F8025D
:1001A00068EE73E080E090E00E944B0308950E94A7
:1001B00075030E945F000E94C600FDCF1F920F9240
:1001C0000FB60F9211242F933F934F935F936F932A
:1001D0007F938F939F93AF93BF93EF93FF93409140
:1001E000C600E091A401F091A501CF01019660E85D
:1001F00070E00E94AF039C018091A6019091A7013D
:100200002817390739F0EC5DFE4F40833093A50184
:100210002093A401FF91EF91BF91AF919F918F9196
:100220007F916F915F914F913F912F910F900FBEF2
:100230000F901F901895AF92BF92CF92DF92EF92DE
:10024000FF920F931F93CF93DF936C017A018B0181
:10025000DC011496AD90BC901597CB01BA0122E059
:1002600030E040E050E00E94E403205C3D4B404F12
:100270005F4FCA01B901A80197010E94E403C901B7
:10028000DA010197A109B109292F3A2F4B2F5527E0
:1002900047FD5A950196A11DB11DE5012883E60190
:1002A000EE81FF8181508083EA85FB85208141E0DA
:1002B00050E0CA010E8402C0880F991F0A94E2F729
:1002C000282B2083EA85FB852081CA010F8402C088
:1002D000880F991F0A94E2F7282B2083EA85FB8573
:1002E0008081088802C0440F551F0A94E2F7842BCE
:1002F0008083DF91CF911F910F91FF90EF90DF905E
:10030000CF90BF90AF900895FC01A085B185218961
:100310008C9190E0022E02C0959587950A94E2F7A1
:1003200080FFF6CF0484F585E02D608308958DE18C
:1003300091E09093A9018093A80184E291E09093C9
:10034000AB018093AA0185EC90E09093AD0180937E
:10035000AC0184EC90E09093AF018093AE0180EC0F
:1003600090E09093B1018093B00181EC90E0909384
:10037000B3018093B20186EC90E09093B501809335
:10038000B40184E08093B60183E08093B70187E0F5
:100390008093B80185E08093B90108950F931F936E
:1003A000CF93DF938C01EB0109C02196D801ED9129
:1003B000FC910190F081E02DC801099568816623C8
:1003C000A1F7DF91CF911F910F910895EF92FF92C6
:1003D0000F931F93CF93DF938C017B01EA010CC035
:1003E000D7016D917D01D801ED91FC910190F081D3
:1003F000E02DC80109952197209791F7DF91CF91C2
:100400001F910F91FF90EF900895DC01ED91FC9109
:100410000280F381E02D099508950F931F938C01BD
:10042000DC01ED91FC910190F081E02D6DE00995EA
:10043000D801ED91FC910190F081E02DC8016AE0B6
:1004400009951F910F9108952F923F924F925F92BD
:100450006F927F928F929F92AF92BF92CF92DF92D4
:10046000EF92FF920F931F93DF93CF93CDB7DEB739
:10047000A0970FB6F894DEBF0FBECDBF1C016A0176
:100480007B01411551056105710549F4DC01ED91D0
:10049000FC910190F081E02D60E3099554C088241F
:1004A00099245401422E55246624772401E010E05B
:1004B0000C0F1D1F080D191DC701B601A3019201E4
:1004C0000E94C203F80160830894811C911CA11C46
:1004D000B11CC701B601A30192010E94C203C90168
:1004E000DA016C017D01C114D104E104F104F1F6DB
:1004F00081E0E82EF12CEC0EFD1EE80CF91C3E010B
:100500000894611C711CD501C4010197A109B109AE
:100510006C01C818D90814C0F601EE0DFF1D6081EA
:100520006A3010F4605D01C0695CD101ED91FC910D
:100530000190F081E02DC10109950894E108F108CE
:100540006E147F0449F7A0960FB6F894DEBF0FBE75
:10055000CDBFCF91DF911F910F91FF90EF90DF9072
:10056000CF90BF90AF909F908F907F906F905F9053
:100570004F903F902F900895EF92FF920F931F930B
:10058000CF93DF93EC017A018B0177FF0FC0E881F5
:10059000F9810190F081E02D6DE2099510950095AB
:1005A000F094E094E11CF11C011D111DCE01B80175
:1005B000A7012AE00E942402DF91CF911F910F91A1
:1005C000FF90EF900895DC012115310541F4ED9184
:1005D000FC910190F081E02D642F099508952A3057
:1005E000310519F40E94BC0208950E942402089566
:1005F0000F931F938C010E94E302C8010E940D0219
:100600001F910F9108951F920F920FB60F92112410
:100610002F933F938F939F93AF93BF938091BE018E
:100620009091BF01A091C001B091C1013091C20170
:100630000196A11DB11D232F2D5F2D3720F02D57C1
:100640000196A11DB11D2093C2018093BE0190931C
:10065000BF01A093C001B093C1018091BA019091F4
:10066000BB01A091BC01B091BD010196A11DB11DBE
:100670008093BA019093BB01A093BC01B093BD01DC
:10068000BF91AF919F918F913F912F910F900FBE8E
:100690000F901F901895EF92FF920F931F937B017D
:1006A0008C018FB7F8944091BE015091BF016091C9
:1006B000C0017091C1018FBF2FB7F8948091BE0126
:1006C0009091BF01A091C001B091C1012FBF841BC7
:1006D000950BA60BB70BE816F9060A071B0760F780
:1006E0001F910F91FF90EF900895789484B58260E8
:1006F00084BD84B5816084BD85B5826085BD85B5C6
:10070000816085BDEEE6F0E0808181608083E1E874
:10071000F0E0808182608083808181608083E0E876
:10072000F0E0808181608083E1EBF0E08081846093
:100730008083E0EBF0E0808181608083EAE7F0E095
:1007400080818460808380818260808380818160F9
:1007500080838081806880831092C100089597FB18
:10076000092E07260AD077FD04D049D006D00020F4
:100770001AF4709561957F4F0895F6F790958195DD
:100780009F4F0895A1E21A2EAA1BBB1BFD010DC0AD
:10079000AA1FBB1FEE1FFF1FA217B307E407F50731
:1007A00020F0A21BB30BE40BF50B661F771F881F0D
:1007B000991F1A9469F760957095809590959B01A3
:1007C000AC01BD01CF01089597FB092E05260ED07F
:1007D00057FD04D0D7DF0AD0001C38F4509540955F
:1007E000309521953F4F4F4F5F4F0895F6F7909505
:1007F0008095709561957F4F8F4F9F4F0895AA1BED
:10080000BB1B51E107C0AA1FBB1FA617B70710F0FB
:10081000A61BB70B881F991F5A95A9F7809590952D
:10082000BC01CD010895EE0FFF1F0590F491E02D5E
:060830000994F894FFCFCB
:1008360052454653303A200041444D55583A20001F
:100846004144435352413A2000000000008401CE47
:0408560001E60100B6
:00000001FF
