:100000000C9461000C947E000C947E000C947E0095
:100010000C947E000C947E000C947E000C947E0068
:100020000C947E000C947E000C947E000C947E0058
:100030000C947E000C947E000C947E000C947E0048
:100040000C9432020C947E000C947E000C947E0082
:100050000C947E000C947E000C947E000C947E0028
:100060000C947E000C947E00000000002400270009
:100070002A0000000000250028002B0000000000DE
:1000800023002600290004040404040404040202DA
:100090000202020203030303030301020408102007
:1000A0004080010204081020010204081020000012
:1000B0000007000201000003040600000000000029
:1000C000000011241FBECFEFD8E0DEBFCDBF11E08E
:1000D000A0E0B1E0E8E7FBE002C005900D92A63099
:1000E000B107D9F711E0A6E0B1E001C01D92AF3031
:1000F000B107E1F70E942D020C94BA050C940000A0
:10010000EF92FF920F931F939C018B017A018091D4
:100110000001B9010E94DE0280910201B8010E9433
:10012000DE0280910401B7010E94DE021F910F914F
:10013000FF90EF9008952F923F924F925F926F92AF
:100140007F928F929F92AF92BF92CF92DF92EF9267
:10015000FF920F931F93DF93CF93CDB7DEB76E97C8
:100160000FB6F894DEBF0FBECDBFFC015B014A01A4
:10017000C60164E670E00E949305CB011E8E1D8EC1
:10018000AF01662757FD6095762F49835A836B83AD
:100190007C832E1B3F0BA901662757FD6095762FA8
:1001A0004D835E836F8378879501442737FD4095A3
:1001B000542F29873A874B875C870A191B09A801A6
:1001C000662757FD6095762F4D875E876F87788B02
:1001D0009401442737FD4095542F298B3A8B4B8B44
:1001E0005C8BE818F908A701662757FD6095762F04
:1001F0004D8B5E8B6F8B788F9C01442737FD40952C
:10020000542F298F3A8F4B8F5C8F4D8D5E8DBA01A5
:10021000882777FD8095982F0E94A40420E030E085
:1002200046EC52E40E9409045B016C0169817A8109
:100230008B819C810E94A4047B018C016D817E8155
:100240008F8198850E94A404A60195010E94300523
:100250009B01AC01C801B7010E94A5030E94710473
:100260001B012C0169857A858B859C850E94A404DD
:100270007B018C016D857E858F8598890E94A40401
:10028000A60195010E9430059B01AC01C801B70190
:100290000E94A5030E9471043B014C0169897A897F
:1002A0008B899C890E94A4047B018C016D897E89C5
:1002B0008F89988D0E94A404A60195010E943005A3
:1002C0009B01AC01C801B7010E94A5030E94710403
:1002D0009B01AC01C101B301A9010E948000698D9D
:1002E0007A8D8B8D9C8D0E947A026D8D7E8D6F5FD5
:1002F0007F4F7E8F6D8F6436710509F086CF6E96C5
:100300000FB6F894DEBF0FBECDBFCF91DF911F9126
:100310000F91FF90EF90DF90CF90BF90AF909F90A4
:100320008F907F906F905F904F903F902F900895A7
:10033000CF92DF92EF92FF920F931F938FEF90E097
:1003400060E070E040E050E020E030E00FEF10E0CF
:10035000EE24FF24A0E2CA2EA3E0DA2E0E949B0026
:1003600060E273E080E090E00E947A0280E090E03A
:100370006FEF70E040E050E02FEF30E0FFEFEF2E46
:10038000F12C0E949B0060E273E080E090E00E940C
:100390007A028FEF90E06FEF70E04FEF50E020E0D7
:1003A00030E0EE24FF240E949B0060E273E080E0D6
:1003B00090E00E947A0280E090E06FEF70E040E011
:1003C00050E020E030E000E010E00E949B0060E29E
:1003D00073E080E090E00E947A0280E090E060E0CC
:1003E00070E040E050E020E030E00FEF10E00E94CD
:1003F0009B0060E273E080E090E00E947A0280E07F
:1004000090E06FEF70E040E050E020E030E000E08E
:1004100010E0EFEFEE2EF12C0E949B0060E273E003
:1004200080E090E00E947A0280E090E060E070E07E
:100430004FEF50E02FEF30E0EE24FF240E949B00AE
:1004400060E273E080E090E00E947A021F910F91D9
:10045000FF90EF90DF90CF9008950E94A4020E9439
:100460009801FDCF1F920F920FB60F9211242F9378
:100470003F938F939F93AF93BF9380910A01909185
:100480000B01A0910C01B0910D0130910E0101966C
:10049000A11DB11D232F2D5F2D3720F02D57019663
:1004A000A11DB11D20930E0180930A0190930B01B1
:1004B000A0930C01B0930D0180910601909107016A
:1004C000A0910801B09109010196A11DB11D809371
:1004D000060190930701A0930801B0930901BF9111
:1004E000AF919F918F913F912F910F900FBE0F90E1
:1004F0001F901895EF92FF920F931F937B018C0131
:100500008FB7F89440910A0150910B0160910C0152
:1005100070910D018FBF2FB7F89480910A019091CF
:100520000B01A0910C01B0910D012FBF841B950B05
:10053000A60BB70BE816F9060A071B0760F71F9111
:100540000F91FF90EF900895789484B5826084BDF8
:1005500084B5816084BD85B5826085BD85B58160C7
:1005600085BDEEE6F0E0808181608083E1E8F0E027
:10057000808182608083808181608083E0E8F0E018
:10058000808181608083E1EBF0E080818460808302
:10059000E0EBF0E0808181608083EAE7F0E0808139
:1005A0008460808380818260808380818160808399
:1005B0008081806880831092C10008951F93CF933B
:1005C000DF93182FEB0161E00E943703E12FF0E089
:1005D000E255FF4F8491833051F480918000806810
:1005E00080938000D0938900C09388003CC0843001
:1005F00051F480918000806280938000D0938B00C2
:10060000C0938A0030C0813039F4209729F184B535
:10061000806884BDC7BD27C0823039F42097E1F0DF
:1006200084B5806284BDC8BD1EC0863041F480910F
:10063000B00080688093B000C093B30014C08730CE
:1006400041F48091B00080628093B000C093B40008
:100650000AC0C038D1051CF4812F60E002C0812F90
:1006600061E00E945703DF91CF911F910895282FD9
:1006700030E0C90186569F4FFC0194912A573F4FA5
:10068000F9018491882391F0E82FF0E0EE0FFF1F2D
:10069000E859FF4FA591B491662329F48C91909568
:1006A00089238C9308958C91892B8C930895482FDE
:1006B00050E0CA0182559F4FFC012491CA01865621
:1006C0009F4FFC0194914A575F4FFA0134913323B5
:1006D000D1F1222331F1233021F4809180008F77F2
:1006E00005C0243031F4809180008F7D809380009C
:1006F00018C0213019F484B58F7704C0223021F45A
:1007000084B58F7D84BD0DC0263021F48091B0006A
:100710008F7705C0273029F48091B0008F7D8093BA
:10072000B000E32FF0E0EE0FFF1FEE58FF4FA59152
:10073000B491662329F48C91909589238C93089524
:100740008C91892B8C9308955058BB27AA270ED0E3
:100750004DC13ED130F043D120F031F49F3F11F430
:100760001EF433C10EF4E095E7FB29C1E92F4FD108
:1007700080F3BA17620773078407950718F071F4BE
:100780009EF567C10EF4E0950B2EBA2FA02D0B013C
:10079000B90190010C01CA01A0011124FF27591BC6
:1007A00099F0593F50F4503E68F11A16F040A22FCC
:1007B000232F342F4427585FF3CF4695379527953D
:1007C000A795F0405395C9F77EF41F16BA0B620B3C
:1007D000730B840BBAF09150A1F0FF0FBB1F661F83
:1007E000771F881FC2F70EC0BA0F621F731F841FC6
:1007F00048F4879577956795B795F7959E3F08F0EC
:10080000B3CF9395880F08F09927EE0F97958795AA
:1008100008950CD0EBC0E3D040F0DAD030F021F4F2
:100820005F3F19F0CCC0511115C1CFC0F0D098F383
:100830009923C9F35523B1F3951B550BBB27AA2761
:1008400062177307840738F09F5F5F4F220F331FD3
:10085000441FAA1FA9F333D00E2E3AF0E0E830D09F
:1008600091505040E695001CCAF729D0FE2F27D0A2
:10087000660F771F881FBB1F261737074807AB0770
:10088000B0E809F0BB0B802DBF01FF2793585F4FE5
:100890002AF09E3F510568F092C0DCC05F3FECF348
:1008A000983EDCF3869577956795B795F7959F5FAA
:1008B000C9F7880F911D9695879597F90895E1E0FE
:1008C000660F771F881FBB1F621773078407BA075D
:1008D00020F0621B730B840BBA0BEE1F88F7E095B8
:1008E000089504D06894B111B5C0089598D088F0E7
:1008F0009F5790F0B92F9927B751A0F0D1F0660F0C
:10090000771F881F991F1AF0BA95C9F712C0B13026
:1009100081F09FD0B1E008959CC0672F782F882781
:10092000B85F39F0B93FCCF3869577956795B39565
:10093000D9F73EF490958095709561957F4F8F4FD4
:100940009F4F0895E89409C097FB3EF490958095D9
:10095000709561957F4F8F4F9F4F9923A9F0F92F85
:1009600096E9BB279395F695879577956795B79503
:10097000F111F8CFFAF4BB0F11F460FF1BC06F5FE9
:100980007F4F8F4F9F4F16C0882311F096E911C0FB
:10099000772321F09EE8872F762F05C0662371F01C
:1009A00096E8862F70E060E02AF09A95660F771F30
:1009B000881FDAF7880F9695879597F9089597F924
:1009C0009F6780E870E060E008959FEF80EC0895F5
:1009D00000240A941616170618060906089500241E
:1009E0000A9412161306140605060895092E039498
:1009F000000C11F4882352F0BB0F40F4BF2B11F40C
:100A000060FF04C06F5F7F4F8F4F9F4F089557FD6A
:100A10009058440F551F59F05F3F71F04795880F6C
:100A200097FB991F61F09F3F79F087950895121603
:100A300013061406551FF2CF4695F1DF08C01616AF
:100A400017061806991FF1CF869571056105089460
:100A50000895E894BB2766277727CB0197F9089577
:100A60000BD0C4CFB5DF28F0BADF18F0952309F01A
:100A7000A6CFABCF1124EECFCADFA0F3959FD1F361
:100A8000950F50E0551F629FF001729FBB27F00D3C
:100A9000B11D639FAA27F00DB11DAA1F649F662791
:100AA000B00DA11D661F829F2227B00DA11D621FE0
:100AB000739FB00DA11D621F839FA00D611D221F9A
:100AC000749F3327A00D611D231F849F600D211D7E
:100AD000822F762F6A2F11249F5750408AF0E1F021
:100AE00088234AF0EE0FFF1FBB1F661F771F881F6A
:100AF00091505040A9F79E3F510570F060CFAACFAA
:100B00005F3FECF3983EDCF3869577956795B79554
:100B1000F795E7959F5FC1F7FE2B880F911D96957E
:100B2000879597F9089597FB092E07260AD077FD38
:100B300004D00CD006D000201AF4709561957F4F38
:100B40000895F6F7909581959F4F0895AA1BBB1BBA
:100B500051E107C0AA1FBB1FA617B70710F0A61BBD
:100B6000B70B881F991F5A95A9F780959095BC01DE
:080B7000CD010895F894FFCFB8
:060B780009000A000B0059
:00000001FF
