:100000000C9435000C945D000C945D000C945D0024
:100010000C945D000C945D000C945D000C945D00EC
:100020000C945D000C945D000C945D000C945D00DC
:100030000C945D000C945F000C945D000C945D00CA
:100040000C943E030C945D000C9417020C945D001C
:100050000C945D000C945D000C945D000C945D00AC
:100060000C945D000C945D00D00211241FBECFEFF4
:10007000D8E0DEBFCDBF11E0A0E0B1E0ECEAF8E0EF
:1000800002C005900D92A631B107D9F711E0A6E1A3
:10009000B1E001C01D92A23DB107E1F710E0CAE650
:1000A000D0E004C02297FE010E945004C836D10758
:1000B000C9F70E9410020C9454040C9400001F9283
:1000C0000F920FB60F9211242F933F934F935F938C
:1000D0006F937F938F939F93AF93BF93EF93FF9310
:1000E00080E28093800010926F0010921601E091E0
:1000F0001701F0911801309711F078940995FF914C
:10010000EF91BF91AF919F918F917F916F915F918F
:100110004F913F912F910F900FBE0F901F90189508
:1001200080911601882311F081E0089580E2809388
:10013000800080913201882319F01092320102C0B0
:100140002D9A2D98E9E1F1E080818EBD0DB407FE76
:10015000FDCF81818EBD0DB407FEFDCF8281339628
:100160008EBD0DB407FEFDCF81E0E133F80761F7E6
:1001700091E09093160180EA80938000B09A90936A
:100180006F0080E00895CF93DF93EC01219A229ACB
:10019000539A2A9A239A259A229A2D9881E08DBD06
:1001A00080E58CBDCB0124E0969587952A95E1F7F3
:1001B000262F2295207F272BE9E1F1E08083218300
:1001C0006283339691E0E133F907C1F7CE010E94D3
:1001D000900080E28093800010926F0010921601D0
:1001E000299A29988093800080E18093810081E0A2
:1001F00090E0909389008093880082E090E0909353
:100200008B0080938A0080E090E290938700809337
:10021000860083E28093B00088E08093B100109262
:10022000B40083E08093B3008091B100816080933B
:10023000B10080918100816080938100CE010E9495
:100240009000DF91CF9108959FE0961B83E0989FE7
:10025000F0011124F695E795E75EFE4F90FF06C08A
:100260008081807F852B808341830895CA0134E09B
:10027000969587953A95E1F7808381818F70942FC9
:100280009295907F892B81830895DF92EF92FF9260
:100290000F931F937B01BC01660F771F680F791FB7
:1002A000D62E01E311E0F701408150E034E0440F25
:1002B000551F3A95E1F7C8010E942401D394F70134
:1002C000418150E024E0440F551F2A95E1F7C80111
:1002D0006D2D0E942401D394F701428150E094E0F7
:1002E000440F551F9A95E1F7C8016D2D0E94240116
:1002F0001F910F91FF90EF90DF900895DF93CF93C0
:10030000CDB7DEB72C970FB6F894DEBF0FBECDBFCA
:10031000DE011196E9E0F1E083E001900D92815059
:10032000E1F7DE011496E6E0F1E083E001900D9242
:100330008150E1F7DE011796E3E0F1E083E0019000
:100340000D928150E1F7DE011A96E0E0F1E083E0E2
:1003500001900D928150E1F780E090E0BE016F5F67
:100360007F4F0E94450181E391E00E94900068EE7A
:1003700073E080E090E00E94860380E090E0BE01A0
:100380006C5F7F4F0E94450181E391E00E949000E5
:1003900068EE73E080E090E00E94860380E090E0E9
:1003A000BE01695F7F4F0E94450181E391E00E9499
:1003B000900068EE73E080E090E00E94860380E0A9
:1003C00090E0BE01665F7F4F0E94450181E391E0AE
:1003D0000E94900068EE73E080E090E00E94860347
:1003E0002C960FB6F894DEBF0FBECDBFCF91DF9134
:1003F00008950F931F9301E311E0C80160E070E0DE
:100400000E94C300C8010E94900087EB91E040E881
:1004100055E260E070E00E9454021F910F91089530
:100420000E94B0030E94F9010E947E01FDCF1F923D
:100430000F920FB60F9211242F933F934F935F9318
:100440006F937F938F939F93AF93BF93EF93FF939C
:100450004091C600E091B301F091B401CF01019643
:1004600060E870E00E94FE039C018091B5019091CC
:10047000B6012817390739F0ED5CFE4F4083309301
:10048000B4012093B301FF91EF91BF91AF919F9180
:100490008F917F916F915F914F913F912F910F902D
:1004A0000FBE0F901F901895AF92BF92CF92DF9220
:1004B000EF92FF920F931F93CF93DF936C017A011A
:1004C0008B01DC011496AD90BC901597CB01BA015D
:1004D00022E030E040E050E00E943304205C3D4BDD
:1004E000404F5F4FCA01B901A80197010E94330430
:1004F000C901DA010197A109B109292F3A2F4B2F20
:10050000552747FD5A950196A11DB11DE501288388
:10051000E601EE81FF8181508083EA85FB852081A1
:1005200041E050E0CA010E8402C0880F991F0A946E
:10053000E2F7282B2083EA85FB852081CA010F84FE
:1005400002C0880F991F0A94E2F7282B2083EA85BE
:10055000FB858081088802C0440F551F0A94E2F78A
:10056000842B8083DF91CF911F910F91FF90EF90AB
:10057000DF90CF90BF90AF900895FC01A085B1852A
:1005800021898C9190E0022E02C0959587950A945E
:10059000E2F780FFF6CF0484F585E02D60830895AF
:1005A00080E191E09093B8018093B70183E391E0FB
:1005B0009093BA018093B90185EC90E09093BC01CF
:1005C0008093BB0184EC90E09093BE018093BD01C9
:1005D00080EC90E09093C0018093BF0181EC90E0AB
:1005E0009093C2018093C10186EC90E09093C40186
:1005F0008093C30184E08093C50183E08093C601AA
:1006000087E08093C70185E08093C80108950F9328
:100610001F93CF93DF938C01EB0109C02196D80182
:10062000ED91FC910190F081E02DC8010995688160
:100630006623A1F7DF91CF911F910F910895EF925B
:10064000FF920F931F93CF93DF938C017B01EA01FD
:100650000CC0D7016D917D01D801ED91FC91019005
:10066000F081E02DC80109952197209791F7DF913E
:10067000CF911F910F91FF90EF9008951F920F92CD
:100680000FB60F9211242F933F938F939F93AF93A5
:10069000BF938091CD019091CE01A091CF01B091F7
:1006A000D0013091D1010196A11DB11D232F2D5FE5
:1006B0002D3720F02D570196A11DB11D2093D1019A
:1006C0008093CD019093CE01A093CF01B093D00140
:1006D0008091C9019091CA01A091CB01B091CC0148
:1006E0000196A11DB11D8093C9019093CA01A093E9
:1006F000CB01B093CC01BF91AF919F918F913F916E
:100700002F910F900FBE0F901F901895EF92FF92B0
:100710000F931F937B018C018FB7F8944091CD010B
:100720005091CE016091CF017091D0018FBF2FB752
:10073000F8948091CD019091CE01A091CF01B0911C
:10074000D0012FBF841B950BA60BB70BE816F9063B
:100750000A071B0760F71F910F91FF90EF90089514
:10076000789484B5826084BD84B5816084BD85B58C
:10077000826085BD85B5816085BDEEE6F0E0808153
:1007800081608083E1E8F0E0808182608083808105
:1007900081608083E0E8F0E0808181608083E1EB2C
:1007A000F0E0808184608083E0EBF0E08081816014
:1007B0008083EAE7F0E080818460808380818260CA
:1007C00080838081816080838081806880831092B3
:1007D000C1000895AA1BBB1B51E107C0AA1FBB1F84
:1007E000A617B70710F0A61BB70B881F991F5A95BD
:1007F000A9F780959095BC01CD01089597FB092E2E
:1008000007260AD077FD04D0E5DF06D000201AF4D1
:10081000709561957F4F0895F6F7909581959F4F5C
:100820000895A1E21A2EAA1BBB1BFD010DC0AA1F31
:10083000BB1FEE1FFF1FA217B307E407F50720F049
:10084000A21BB30BE40BF50B661F771F881F991FC4
:100850001A9469F760957095809590959B01AC010D
:10086000BD01CF01089597FB092E05260ED057FD37
:1008700004D0D7DF0AD0001C38F45095409530954D
:1008800021953F4F4F4F5F4F0895F6F79095809514
:10089000709561957F4F8F4F9F4F0895EE0FFF1F0B
:0C08A0000590F491E02D0994F894FFCF2E
:1008AC000000FF00FF00FF0000FFFFFF0000000042
:0608BC00BD0207031F034B
:00000001FF
