:100000000C9435000C945D000C945D000C945D0024
:100010000C945D000C945D000C945D000C945D00EC
:100020000C945D000C945D000C945D000C945D00DC
:100030000C945D000C945F000C945D000C945D00CA
:100040000C9494040C945D000C9433020C945D00A9
:100050000C945D000C945D000C945D000C945D00AC
:100060000C945D000C945D00280311241FBECFEF9B
:10007000D8E0DEBFCDBF11E0A0E0B1E0E0E2FBE000
:1000800002C005900D92A032B107D9F711E0A0E2AD
:10009000B1E001C01D92AF3DB107E1F710E0CAE643
:1000A000D0E004C02297FE010E948A05C836D1071D
:1000B000C9F70E942C020C948E050C9400001F922C
:1000C0000F920FB60F9211242F933F934F935F938C
:1000D0006F937F938F939F93AF93BF93EF93FF9310
:1000E00080E28093800010926F0010922001E091D6
:1000F0002101F0912201309711F078940995FF9138
:10010000EF91BF91AF919F918F917F916F915F918F
:100110004F913F912F910F900FBE0F901F90189508
:1001200080912001882311F081E0089580E280937E
:10013000800080913C01882319F010923C0102C09C
:100140002D9A2D98E3E2F1E080818EBD0DB407FE7B
:10015000FDCF81818EBD0DB407FEFDCF8281339628
:100160008EBD0DB407FEFDCF81E0EB33F80761F7DC
:1001700091E09093200180EA80938000B09A909360
:100180006F0080E00895CF93DF93EC01219A229ACB
:10019000539A2A9A239A259A229A2D9881E08DBD06
:1001A00080E58CBDCB0124E0969587952A95E1F7F3
:1001B000262F2295207F272BE3E2F1E08083218305
:1001C0006283339691E0EB33F907C1F7CE010E94C9
:1001D000900080E28093800010926F0010922001C6
:1001E000299A29988093800080E18093810081E0A2
:1001F00090E0909389008093880082E090E0909353
:100200008B0080938A0080E090E290938700809337
:10021000860083E28093B00088E08093B100109262
:10022000B40083E08093B3008091B100816080933B
:10023000B10080918100816080938100CE010E9495
:100240009000DF91CF9108959FE0961B83E0989FE7
:10025000F0011124F695E795ED5DFE4F90FF06C085
:100260008081807F852B808341830895CA0134E09B
:10027000969587953A95E1F7808381818F70942FC9
:100280009295907F892B81830895DF92EF92FF9260
:100290000F931F937B01BC01660F771F680F791FB7
:1002A000D62E0BE311E0F701408150E024E0440F2B
:1002B000551F2A95E1F7C8010E942401D394F70144
:1002C000418150E094E0440F551F9A95E1F7C80131
:1002D0006D2D0E942401D394F701428150E084E007
:1002E000440F551F8A95E1F7C8016D2D0E94240126
:1002F0001F910F91FF90EF90DF90089508C088EE56
:1003000093E00E94DC048BE391E00E94900084EC77
:1003100091E00E94D902882391F384EC91E00E943D
:10032000ED022FEF8F3F920791F30895CF92DF9266
:10033000EF92FF920F931F937C0104EC11E0C80130
:1003400060E071E00E949603F701408150E060E0B8
:1003500070E0C8012AE030E00E947F0449E0C42E2A
:1003600041E0D42EC801B6010E949603F7014181F5
:1003700050E060E070E0C8012AE030E00E947F04B5
:10038000C801B6010E949603F701428150E060E087
:1003900070E0C8012AE030E00E947F04C8010E949A
:1003A0009E031F910F91FF90EF90DF90CF900895E3
:1003B0000F931F93DF93CF9300D00F92CDB7DEB78B
:1003C000DE011196E2E1F1E083E001900D928150AF
:1003D000E1F780E090E08E010F5F1F4FB8010E94AF
:1003E00045018BE391E00E949000C8010E949601B4
:1003F0000E947E01082F0E947E01182F0E947E011C
:1004000000933D0110933E0180933F0180E090E016
:100410006DE371E00E9445018BE391E00E94900042
:100420008DE391E0E3CF0F931F938BE391E060E0C6
:1004300070E00E94C30004EC11E0C80140E855E2FE
:1004400060E070E00E947002C8016CE071E00E9400
:10045000B5031F910F9108950E94EA040E941302B0
:100460000E94D801FDCF1F920F920FB60F92112458
:100470002F933F934F935F936F937F938F939F93AC
:10048000AF93BF93EF93FF934091C600E091C001FB
:10049000F091C101CF01019660E870E00E9424054F
:1004A0009C018091C2019091C3012817390739F04E
:1004B000E05CFE4F40833093C1012093C001FF9167
:1004C000EF91BF91AF919F918F917F916F915F91CC
:1004D0004F913F912F910F900FBE0F901F90189545
:1004E000AF92BF92CF92DF92EF92FF920F931F9342
:1004F000CF93DF936C017A018B01DC011496AD90F0
:10050000BC901597CB01BA0122E030E040E050E00A
:100510000E945905205C3D4B404F5F4FCA01B90115
:10052000A80197010E945905C901DA010197A109A3
:10053000B109292F3A2F4B2F552747FD5A95019680
:10054000A11DB11DE5012883E601EE81FF818150E7
:100550008083EA85FB85208141E050E0CA010E845A
:1005600002C0880F991F0A94E2F7282B2083EA859E
:10057000FB852081CA010F8402C0880F991F0A944D
:10058000E2F7282B2083EA85FB858081088802C05A
:10059000440F551F0A94E2F7842B8083DF91CF919B
:1005A0001F910F91FF90EF90DF90CF90BF90AF9091
:1005B0000895DC011296ED91FC911397E058FF4FDE
:1005C0008191919180589F4F20813181821B930BA3
:1005D00060E870E00E9424050895CF93DF93DC016A
:1005E0001296ED91FC911397EF01CE57DF4F4881A2
:1005F0005981E058FF4F80819181E058F040841785
:10060000950719F42FEF3FEF0CC0E40FF51F208181
:10061000CA01019660E870E00E94240599838883EE
:1006200030E0C901DF91CF910895FC01A085B1852B
:1006300021898C9190E0022E02C0959587950A94AD
:10064000E2F780FFF6CF0484F585E02D60830895FE
:1006500089E191E09093C5018093C40180E491E029
:100660009093C7018093C60185EC90E09093C901F7
:100670008093C80184EC90E09093CB018093CA01F1
:1006800080EC90E09093CD018093CC0181EC90E0E0
:100690009093CF018093CE0186EC90E09093D101AE
:1006A0008093D00184E08093D20183E08093D301D2
:1006B00087E08093D40185E08093D50108950F935E
:1006C0001F93CF93DF938C01EB0109C02196D801D2
:1006D000ED91FC910190F081E02DC80109956881B0
:1006E0006623A1F7DF91CF911F910F910895EF92AB
:1006F000FF920F931F93CF93DF938C017B01EA014D
:100700000CC0D7016D917D01D801ED91FC91019054
:10071000F081E02DC80109952197209791F7DF918D
:10072000CF911F910F91FF90EF900895DC01ED9113
:10073000FC910280F381E02D099508950F931F939A
:100740008C01DC01ED91FC910190F081E02D6DE0D8
:100750000995D801ED91FC910190F081E02DC8013F
:100760006AE009951F910F9108950F931F938C01D3
:100770000E949603C8010E949E031F910F91089545
:100780002F923F924F925F926F927F928F929F92A1
:10079000AF92BF92CF92DF92EF92FF920F931F938F
:1007A000DF93CF93CDB7DEB7A0970FB6F894DEBF37
:1007B0000FBECDBF1C016A017B01411551056105CA
:1007C000710549F4DC01ED91FC910190F081E02D7F
:1007D00060E3099554C0882499245401422E55247D
:1007E0006624772401E010E00C0F1D1F080D191D71
:1007F000C701B601A30192010E943705F801608389
:100800000894811C911CA11CB11CC701B601A30155
:1008100092010E943705C901DA016C017D01C11402
:10082000D104E104F104F1F681E0E82EF12CEC0EA4
:10083000FD1EE80CF91C3E010894611C711CD501D9
:10084000C4010197A109B1096C01C818D90814C0E5
:10085000F601EE0DFF1D60816A3010F4605D01C08D
:10086000695CD101ED91FC910190F081E02DC10115
:1008700009950894E108F1086E147F0449F7A096E1
:100880000FB6F894DEBF0FBECDBFCF91DF911F91A1
:100890000F91FF90EF90DF90CF90BF90AF909F901F
:1008A0008F907F906F905F904F903F902F90089522
:1008B000EF92FF920F931F93CF93DF93EC017A0196
:1008C0008B0177FF0FC0E881F9810190F081E02D65
:1008D0006DE2099510950095F094E094E11CF11CEF
:1008E000011D111DCE01B801A7012AE00E94C0031D
:1008F000DF91CF911F910F91FF90EF900895DC0150
:100900002115310541F4ED91FC910190F081E02D2C
:10091000642F099508952A30310519F40E9458046E
:1009200008950E94C00308951F920F920FB60F9270
:1009300011242F933F938F939F93AF93BF938091F5
:10094000DA019091DB01A091DC01B091DD013091E1
:10095000DE010196A11DB11D232F2D5F2D3720F043
:100960002D570196A11DB11D2093DE018093DA0160
:100970009093DB01A093DC01B093DD018091D6015F
:100980009091D701A091D801B091D9010196A11DF4
:10099000B11D8093D6019093D701A093D801B09355
:1009A000D901BF91AF919F918F913F912F910F905E
:1009B0000FBE0F901F901895019759F0FC01EE0F94
:1009C000FF1FEE0FFF1F32978FB7F8943197F1F7A3
:1009D0008FBF0895789484B5826084BD84B58160AA
:1009E00084BD85B5826085BD85B5816085BDEEE637
:1009F000F0E0808181608083E1E8F0E080818260C6
:100A00008083808181608083E0E8F0E08081816084
:100A10008083E1EBF0E0808184608083E0EBF0E0B4
:100A2000808181608083EAE7F0E080818460808358
:100A30008081826080838081816080838081806802
:100A400080831092C100089597FB092E07260AD0D3
:100A500077FD04D049D006D000201AF47095619536
:100A60007F4F0895F6F7909581959F4F0895A1E2E5
:100A70001A2EAA1BBB1BFD010DC0AA1FBB1FEE1F18
:100A8000FF1FA217B307E407F50720F0A21BB30B63
:100A9000E40BF50B661F771F881F991F1A9469F7DF
:100AA00060957095809590959B01AC01BD01CF013B
:100AB000089597FB092E05260ED057FD04D0D7DFE9
:100AC0000AD0001C38F450954095309521953F4F41
:100AD0004F4F5F4F0895F6F790958095709561950B
:100AE0007F4F8F4F9F4F0895AA1BBB1B51E107C03B
:100AF000AA1FBB1FA617B70710F0A61BB70B881FAE
:100B0000991F5A95A9F780959095BC01CD0108953C
:100B1000EE0FFF1F0590F491E02D0994F894FFCF9C
:100B2000436F6C6F75723A20002C2000726561640F
:100B30007900003FFF0000000015035F037703000A
:00000001FF
