:100000000C9462000C948A000C948A000C948A0070
:100010000C948A000C948A000C948A000C948A0038
:100020000C948A000C948A000C948A000C948A0028
:100030000C948A000C948A000C948A000C948A0018
:100040000C940B050C948A000C9486020C948A0084
:100050000C948A000C948A000C948A000C948A00F8
:100060000C948A000C948A000000000024002700F1
:100070002A0000000000250028002B0000000000DE
:1000800023002600290004040404040404040202DA
:100090000202020203030303030301020408102007
:1000A0004080010204081020010204081020000012
:1000B0000007000201000003040600000000000029
:1000C00000003F0311241FBECFEFD8E0DEBFCDBF3D
:1000D00011E0A0E0B1E0E6E5F2E102C005900D928A
:1000E000AC35B107D9F711E0ACE5B1E001C01D9224
:1000F000AB3FB107E1F710E0C4ECD0E004C02297B9
:10010000FE010E942509C23CD107C9F70E947F0267
:100110000C9429090C940000EF92FF920F931F9307
:100120009C018B017A0180914C01B9010E94E2058A
:1001300080914E01B8010E94E20580915001B70103
:100140000E94E2051F910F91FF90EF9008952F926A
:100150003F924F925F926F927F928F929F92AF9257
:10016000BF92CF92DF92EF92FF920F931F93DF9394
:10017000CF93CDB7DEB76E970FB6F894DEBF0FBE44
:10018000CDBFFC015B014A01C60164EF71E00E9432
:10019000BF08CB011E8E1D8EAF01662757FD6095EF
:1001A000762F49835A836B837C832E1B3F0BA901D7
:1001B000662757FD6095762F4D835E836F83788722
:1001C0009501442737FD4095542F29873A874B875F
:1001D0005C870A191B09A801662757FD6095762FD1
:1001E0004D875E876F87788B9401442737FD409554
:1001F000542F298B3A8B4B8B5C8BE818F908A7019D
:10020000662757FD6095762F4D8B5E8B6F8B788FB1
:100210009C01442737FD4095542F298F3A8F4B8FEF
:100220005C8F4D8D5E8DBA01882777FD8095982F64
:100230000E94AC0720E030E849EF53E40E94110728
:100240005B016C0169817A818B819C810E94AC0782
:100250007B018C016D817E818F8198850E94AC0726
:10026000A60195010E945C089B01AC01C801B70181
:100270000E94A9060E9479071B012C0169857A85D5
:100280008B859C850E94AC077B018C016D857E85EA
:100290008F8598890E94AC07A60195010E945C0891
:1002A0009B01AC01C801B7010E94A9060E94790711
:1002B0003B014C0169897A898B899C890E94AC0732
:1002C0007B018C016D897E898F89988D0E94AC0796
:1002D000A60195010E945C089B01AC01C801B70111
:1002E0000E94A9060E9479077B018C01C101B3011C
:1002F000A7010E948C00698D7A8D8B8D9C8D0E9448
:100300007E0580EE91E060E071E00E94AD0380EE3A
:1003100091E06D8D7E8D0E94780480EE91E067E023
:1003200071E00E94AD0380EE91E0B601A5010E944C
:10033000070580EE91E062E171E00E94AD0380EE7E
:1003400091E0B1010E94780480EE91E069E171E0F2
:100350000E94AD0380EE91E0B3010E94780480EE2C
:1003600091E060E271E00E94AD0380EE91E0B701A0
:100370000E94780480EE91E067E271E00E94AD0394
:100380006D8D7E8D6F5F7F4F7E8F6D8F645F71404F
:1003900009F047CF6E960FB6F894DEBF0FBECDBF03
:1003A000CF91DF911F910F91FF90EF90DF90CF9051
:1003B000BF90AF909F908F907F906F905F904F9085
:1003C0003F902F900895CF92DF92EF92FF920F937C
:1003D0001F939C016A017B0100EE11E0C801B90185
:1003E0000E94AD03C801B701A6010E944D04C801D7
:1003F00067E271E00E94AD031F910F91FF90EF90B3
:10040000DF90CF9008952F923F924F925F926F921C
:100410007F928F929F92AF92BF92CF92DF92EF9294
:10042000FF920F931F930E9453051B012C0180E044
:1004300090E062E370E04FEF50E020E030E000E059
:1004400010E0EE24FF24E4E6CE2ED12C0E94A7007B
:100450000E9453055B016C0180E090E060E070E079
:1004600040E050E00E948C00B601A50142195309FA
:100470006409750989E291E00E94E3010E94530535
:100480003B014C0164E670E080E090E00E947E0554
:100490000E9453057B018C01AB01BC014619570931
:1004A0006809790984E391E00E94E301A218B30886
:1004B000E618F708AE18BF08A501662757FD609536
:1004C000762F8FE391E00E94E3011F910F91FF903F
:1004D000EF90DF90CF90BF90AF909F908F907F90E4
:1004E0006F905F904F903F902F90089580EE91E035
:1004F00040E855E260E070E00E94C30208950E9467
:10050000A8050E9476020E940302FDCF1F920F925F
:100510000FB60F9211242F933F934F935F936F93D6
:100520007F938F939F93AF93BF93EF93FF934091EC
:10053000C600E091DC01F091DD01CF01019660E899
:1005400070E00E94BF089C018091DE019091DF0164
:100550002817390739F0E45AFE4F40833093DD0104
:100560002093DC01FF91EF91BF91AF919F918F910B
:100570007F916F915F914F913F912F910F900FBE9F
:100580000F901F901895AF92BF92CF92DF92EF928B
:10059000FF920F931F93CF93DF936C017A018B012E
:1005A000DC011496AD90BC901597CB01BA0122E006
:1005B00030E040E050E00E94F408205C3D4B404FAA
:1005C0005F4FCA01B901A80197010E94F408C9014F
:1005D000DA010197A109B109292F3A2F4B2F55278D
:1005E00047FD5A950196A11DB11DE5012883E6013D
:1005F000EE81FF8181508083EA85FB85208141E087
:1006000050E0CA010E8402C0880F991F0A94E2F7D5
:10061000282B2083EA85FB852081CA010F8402C034
:10062000880F991F0A94E2F7282B2083EA85FB851F
:100630008081088802C0440F551F0A94E2F7842B7A
:100640008083DF91CF911F910F91FF90EF90DF900A
:10065000CF90BF90AF900895FC01A085B18521890E
:100660008C9190E0022E02C0959587950A94E2F74E
:1006700080FFF6CF0484F585E02D6083089586E53C
:1006800091E09093E1018093E0018CE591E09093FB
:10069000E3018093E20185EC90E09093E501809383
:1006A000E40184EC90E09093E7018093E60180EC14
:1006B00090E09093E9018093E80181EC90E09093C1
:1006C000EB018093EA0186EC90E09093ED0180933A
:1006D000EC0184E08093EE0183E08093EF0187E0FA
:1006E0008093F00185E08093F10108950F931F93AB
:1006F000CF93DF938C01EB0109C02196D801ED91D6
:10070000FC910190F081E02DC80109956881662374
:10071000A1F7DF91CF911F910F910895EF92FF9272
:100720000F931F93CF93DF938C017B01EA010CC0E1
:10073000D7016D917D01D801ED91FC910190F0817F
:10074000E02DC80109952197209791F7DF91CF916E
:100750001F910F91FF90EF900895DC01ED91FC91B6
:100760000280F381E02D099508952F923F924F92D8
:100770005F926F927F928F929F92AF92BF92CF9231
:10078000DF92EF92FF920F931F93DF93CF93CDB73A
:10079000DEB7A0970FB6F894DEBF0FBECDBF1C0129
:1007A0006A017B01411551056105710549F4DC01C0
:1007B000ED91FC910190F081E02D60E3099554C02A
:1007C000882499245401422E55246624772401E07C
:1007D00010E00C0F1D1F080D191DC701B601A30164
:1007E00092010E94D208F80160830894811C911C38
:1007F000A11CB11CC701B601A30192010E94D2083D
:10080000C901DA016C017D01C114D104E104F104D4
:10081000F1F681E0E82EF12CEC0EFD1EE80CF91C3F
:100820003E010894611C711CD501C4010197A10906
:10083000B1096C01C818D90814C0F601EE0DFF1DEE
:1008400060816A3010F4605D01C0695CD101ED9196
:10085000FC910190F081E02DC10109950894E10817
:10086000F1086E147F0449F7A0960FB6F894DEBF26
:100870000FBECDBFCF91DF911F910F91FF90EF90F1
:10088000DF90CF90BF90AF909F908F907F906F90B0
:100890005F904F903F902F9008952AE00E94B503FB
:1008A0000895EF92FF920F931F93CF93DF93EC0184
:1008B0007A018B0177FF0FC0E881F9810190F08107
:1008C000E02D6DE2099510950095F094E094E11CFF
:1008D000F11C011D111DCE01B801A7012AE00E94E3
:1008E000B503DF91CF911F910F91FF90EF90089585
:1008F000AB01662757FD6095762F0E94510408953D
:100900009F92AF92BF92CF92DF92EF92FF920F939E
:100910001F93CF93DF93EC017A018B01922ECB01D1
:10092000BA0120E030E040E050E00E940D0788234B
:1009300064F4E881F9810190F081E02DCE016DE24F
:10094000099517FB109517F9109520E030E040E06D
:100950005FE3AA240BC0CA01B90120E030E040E205
:1009600051E40E9411079B01AC01A394A91498F3D0
:10097000C801B7010E94A9065B016C010E947E07B5
:100980007B018C01CE01B801A7010E944D04992082
:1009900029F0CE016AE471E00E94AD03C801B701FD
:1009A0000E94AA079B01AC01C601B5010E94A806DE
:1009B00020C020E030E040E251E40E945C087B016E
:1009C0008C010E9479075B016C01CC24B7FCC094B8
:1009D000DC2CCE01B601A5010E945104C601B5016F
:1009E0000E94AC079B01AC01C801B7010E94A80698
:1009F0009A949920F1F6DF91CF911F910F91FF907A
:100A0000EF90DF90CF90BF90AF909F90089522E03D
:100A10000E94800408951F920F920FB60F92112426
:100A20002F933F938F939F93AF93BF938091F60142
:100A30009091F701A091F801B091F9013091FA017C
:100A40000196A11DB11D232F2D5F2D3720F02D57AD
:100A50000196A11DB11D2093FA018093F601909398
:100A6000F701A093F801B093F9018091F201909100
:100A7000F301A091F401B091F5010196A11DB11D02
:100A80008093F2019093F301A093F401B093F501E8
:100A9000BF91AF919F918F913F912F910F900FBE7A
:100AA0000F901F9018956FB7F89486B590E0A0E06E
:100AB000B0E0A89B08C00097A105B10521F480E033
:100AC00091E0A0E0B0E02091F2013091F30140917B
:100AD000F4015091F5016FBF542F432F322F22277D
:100AE000280F391F4A1F5B1F82E0220F331F441F4C
:100AF000551F8A95D1F7B901CA010895EF92FF9267
:100B00000F931F937B018C018FB7F8944091F601EE
:100B10005091F7016091F8017091F9018FBF2FB7E3
:100B2000F8948091F6019091F701A091F801B091AD
:100B3000F9012FBF841B950BA60BB70BE816F9061E
:100B40000A071B0760F71F910F91FF90EF90089520
:100B5000789484B5826084BD84B5816084BD85B598
:100B6000826085BD85B5816085BDEEE6F0E080815F
:100B700081608083E1E8F0E0808182608083808111
:100B800081608083E0E8F0E0808181608083E1EB38
:100B9000F0E0808184608083E0EBF0E08081816020
:100BA0008083EAE7F0E080818460808380818260D6
:100BB00080838081816080838081806880831092BF
:100BC000C10008951F93CF93DF93182FEB0161E0CD
:100BD0000E943B06E12FF0E0E255FF4F8491833005
:100BE00051F480918000806880938000D0938900C8
:100BF000C09388003CC0843051F4809180008062B2
:100C000080938000D0938B00C0938A0030C08130E5
:100C100039F4209729F184B5806884BDC7BD27C009
:100C2000823039F42097E1F084B5806284BDC8BD7C
:100C30001EC0863041F48091B00080688093B0007F
:100C4000C093B30014C0873041F48091B00080623B
:100C50008093B000C093B4000AC0C038D1051CF422
:100C6000812F60E002C0812F61E00E945B06DF916E
:100C7000CF911F910895282F30E0C90186569F4FCC
:100C8000FC0194912A573F4FF9018491882391F0F8
:100C9000E82FF0E0EE0FFF1FE859FF4FA591B49148
:100CA000662329F48C91909589238C9308958C91D7
:100CB000892B8C930895482F50E0CA0182559F4F8D
:100CC000FC012491CA0186569F4FFC0194914A571A
:100CD0005F4FFA0134913323D1F1222331F12330D4
:100CE00021F4809180008F7705C0243031F4809109
:100CF00080008F7D8093800018C0213019F484B566
:100D00008F7704C0223021F484B58F7D84BD0DC05F
:100D1000263021F48091B0008F7705C0273029F468
:100D20008091B0008F7D8093B000E32FF0E0EE0F54
:100D3000FF1FEE58FF4FA591B491662329F48C91C3
:100D4000909589238C9308958C91892B8C93089589
:100D50005058BB27AA270ED075C166D130F06BD191
:100D600020F031F49F3F11F41EF45BC10EF4E095C6
:100D7000E7FB51C1E92F77D180F3BA1762077307F8
:100D80008407950718F071F49EF58FC10EF4E09575
:100D90000B2EBA2FA02D0B01B90190010C01CA0135
:100DA000A0011124FF27591B99F0593F50F4503EE0
:100DB00068F11A16F040A22F232F342F4427585FD2
:100DC000F3CF469537952795A795F0405395C9F7EA
:100DD0007EF41F16BA0B620B730B840BBAF09150A2
:100DE000A1F0FF0FBB1F661F771F881FC2F70EC041
:100DF000BA0F621F731F841F48F487957795679514
:100E0000B795F7959E3F08F0B3CF9395880F08F0FC
:100E10009927EE0F979587950895D9D008F481E02A
:100E200008950CD00FC107D140F0FED030F021F46E
:100E30005F3F19F0F0C0511139C1F3C014D198F3DC
:100E40009923C9F35523B1F3951B550BBB27AA274B
:100E500062177307840738F09F5F5F4F220F331FBD
:100E6000441FAA1FA9F333D00E2E3AF0E0E830D089
:100E700091505040E695001CCAF729D0FE2F27D08C
:100E8000660F771F881FBB1F261737074807AB075A
:100E9000B0E809F0BB0B802DBF01FF2793585F4FCF
:100EA0002AF09E3F510568F0B6C000C15F3FECF3E9
:100EB000983EDCF3869577956795B795F7959F5F94
:100EC000C9F7880F911D9695879597F90895E1E0E8
:100ED000660F771F881FBB1F621773078407BA0747
:100EE00020F0621B730B840BBA0BEE1F88F7E095A2
:100EF000089504D06894B111D9C00895BCD088F089
:100F00009F5790F0B92F9927B751A0F0D1F0660FF5
:100F1000771F881F991F1AF0BA95C9F712C0B13010
:100F200081F0C3D0B1E00895C0C0672F782F882723
:100F3000B85F39F0B93FCCF3869577956795B3954F
:100F4000D9F73EF490958095709561957F4F8F4FBE
:100F50009F4F0895E89409C097FB3EF490958095C3
:100F6000709561957F4F8F4F9F4F9923A9F0F92F6F
:100F700096E9BB279395F695879577956795B795ED
:100F8000F111F8CFFAF4BB0F11F460FF1BC06F5FD3
:100F90007F4F8F4F9F4F16C0882311F096E911C0E5
:100FA000772321F09EE8872F762F05C0662371F006
:100FB00096E8862F70E060E02AF09A95660F771F1A
:100FC000881FDAF7880F9695879597F90895990FF6
:100FD0000008550FAA0BE0E8FEEF16161706E80703
:100FE000F907C0F012161306E407F50798F0621B24
:100FF000730B840B950B39F40A2661F0232B242BF9
:10100000252B21F408950A2609F4A140A6958FEF17
:10101000811D811D089597F99F6780E870E060E069
:1010200008959FEF80EC089500240A941616170681
:1010300018060906089500240A94121613061406C9
:1010400005060895092E0394000C11F4882352F02C
:10105000BB0F40F4BF2B11F460FF04C06F5F7F4FE4
:101060008F4F9F4F089557FD9058440F551F59F0CB
:101070005F3F71F04795880F97FB991F61F09F3F85
:1010800079F087950895121613061406551FF2CFAE
:101090004695F1DF08C0161617061806991FF1CFFE
:1010A00086957105610508940895E894BB27662725
:1010B0007727CB0197F908950BD0C4CFB5DF28F07F
:1010C000BADF18F0952309F0A6CFABCF1124EECFED
:1010D000CADFA0F3959FD1F3950F50E0551F629F93
:1010E000F001729FBB27F00DB11D639FAA27F00D81
:1010F000B11DAA1F649F6627B00DA11D661F829FA8
:101100002227B00DA11D621F739FB00DA11D621F8C
:10111000839FA00D611D221F749F3327A00D611DA9
:10112000231F849F600D211D822F762F6A2F11248B
:101130009F5750408AF0E1F088234AF0EE0FFF1FDE
:10114000BB1F661F771F881F91505040A9F79E3F15
:10115000510570F060CFAACF5F3FECF3983EDCF30F
:10116000869577956795B795F795E7959F5FC1F752
:10117000FE2B880F911D9695879597F9089597FBFB
:10118000092E07260AD077FD04D049D006D00020CA
:101190001AF4709561957F4F0895F6F790958195B3
:1011A0009F4F0895A1E21A2EAA1BBB1BFD010DC083
:1011B000AA1FBB1FEE1FFF1FA217B307E407F50707
:1011C00020F0A21BB30BE40BF50B661F771F881FE3
:1011D000991F1A9469F760957095809590959B0179
:1011E000AC01BD01CF01089597FB092E05260ED055
:1011F00057FD04D0D7DF0AD0001C38F45095409535
:10120000309521953F4F4F4F5F4F0895F6F79095DA
:101210008095709561957F4F8F4F9F4F0895AA1BC2
:10122000BB1B51E107C0AA1FBB1FA617B70710F0D1
:10123000A61BB70B881F991F5A95A9F78095909503
:10124000BC01CD010895EE0FFF1F0590F491E02D34
:061250000994F894FFCFA1
:10125600737465703A20002070657263656E743A27
:101266002000207265643A20002067726E3A2000E2
:1012760020626C753A20000A0066616465546F3A14
:101286002020200064656C61793A202020200064CB
:101296006966663A2020202020002E0009000A00F8
:0C12A6000B00000000002C0376038E03F8
:00000001FF
