:100000000C9462000C948A000C948A000C948A0070
:100010000C948A000C948A000C948A000C948A0038
:100020000C948A000C948A000C948A000C948A0028
:100030000C948A000C948A000C948A000C948A0018
:100040000C94A6030C948A000C9455020C948A001C
:100050000C948A000C948A000C948A000C948A00F8
:100060000C948A000C948A000000000024002700F1
:100070002A0000000000250028002B0000000000DE
:1000800023002600290004040404040404040202DA
:100090000202020203030303030301020408102007
:1000A0004080010204081020010204081020000012
:1000B0000007000201000003040600000000000029
:1000C00000000E0311241FBECFEFD8E0DEBFCDBF6E
:1000D00011E0A0E0B1E0EEE6FBE002C005900D9279
:1000E000A635B107D9F712E0A6E5B1E001C01D922F
:1000F000A830B107E1F710E0C4ECD0E004C02297CB
:10010000FE010E94B105C23CD107C9F70E944E0210
:100110000C94B5050C9400008F929F92AF92BF9201
:10012000CF92DF92EF92FF920F931F93CF93DF93C3
:10013000DC01FB015A0149014115510519F421E087
:1001400030E014C042E050E02AE030E00CC0C901C9
:10015000880F991F63E0220F331F6A95E1F7280F7C
:10016000391F4F5F5F4FA416B5068CF7B90188277A
:1001700077FD8095982FEA9F9001EB9F300DFA9FB5
:10018000300D1124442737FD4095542F0E942C0533
:100190002FEF33E040E050E00E945E05C901DA0134
:1001A0007C018D01F401EB5AFE4F8EE28083E50164
:1001B000C80DD91DCB5ADE4F81E0C82ED12C1BC0F3
:1001C000C801B7012AE030E040E050E00E945E053F
:1001D000605D7F4F6883C801B7012AE030E040E0EE
:1001E00050E00E945E05C901DA017C018D0108948E
:1001F000C11CD11C2197AC14BD0414F7E401CC5AE6
:10020000DE4FC801B7012AE030E040E050E00E9434
:100210005E05605D7F4F6883C801B7012AE030E06A
:1002200040E050E00E945E05C901DA017C018D01C9
:100230002197E114F1040105110519F7DF91CF9120
:100240001F910F91FF90EF90DF90CF90BF90AF90F4
:100250009F908F900895CF93DF93AC01EB01DC0169
:100260000D900020E9F7A81BB90B1297CB5ADE4F6F
:1002700020E030E007C0FA01E20FF31F808189938C
:100280002F5F3F4FA217B307B4F7DF91CF910895C7
:10029000EF92FF920F931F938C018DE061E00E941B
:1002A0009004C80162E070E00E944B057B010027CA
:1002B000F7FC0095102FC801B7010E94EE038DE0F6
:1002C00060E00E949004C801B7010E94EE031F91F4
:1002D0000F91FF90EF9008958DEE91E066E571E04B
:1002E0000E949B0308950F931F93CF93DF9386E0A3
:1002F0000E94DD04892B99F58FEF93E090934A01DA
:10030000809349011092680110926701C6E5D1E01F
:10031000FE0180E2819391E0E636F907D9F780E0AB
:1003200091E061E070E00E942B0181E090E00E948A
:100330006C0180E2899391E0C636D907D9F781E153
:1003400091E061E070E00E942B0182E090E00E9469
:100350006C0164E670E080E090E00E94EE0380E0D3
:100360000E945204182F092F4091490150914A01CF
:100370009C01421753070CF49A0130934A012093D1
:1003800049014091670150916801812F902F9C0194
:10039000241735070CF49A01309368012093670104
:1003A000C6E5D1E0FE0180E2819391E0E636F907EF
:1003B000D9F780E091E061E070E00E942B0181E0DC
:1003C00090E00E946C0180E2899391E0C636D907E3
:1003D000D9F782E291E061E070E00E942B01809108
:1003E000490190914A0165E070E042E050E022E06E
:1003F00030E00E948C00812F902F65E070E042E099
:1004000050E028E030E00E948C00809167019091DC
:10041000680165E070E042E050E02EE030E00E94CC
:100420008C0082E090E00E946C0184EF91E00E94D9
:100430004801DF91CF911F910F9108951F938DEE89
:1004400091E040E855E260E070E00E94920287B1DE
:100450008C6087B94298439A64E670E080E090E04F
:100460000E94EE0317E0812F61E00E947004812F4B
:1004700060E00E9490041F5F1E30A9F786E060E0F4
:100480000E94700486E061E00E9490048DEE91E08D
:1004900063E371E00E949B031F9108950E9418047A
:1004A0000E941E020E947301FDCF1F920F920FB691
:1004B0000F9211242F933F934F935F936F937F93EA
:1004C0008F939F93AF93BF93EF93FF934091C60099
:1004D000E091E901F091EA01CF01019660E870E056
:1004E0000E944B059C018091EB019091EC01281733
:1004F000390739F0E759FE4F40833093EA012093E2
:10050000E901FF91EF91BF91AF919F918F917F9101
:100510006F915F914F913F912F910F900FBE0F9070
:100520001F901895AF92BF92CF92DF92EF92FF92F9
:100530000F931F93CF93DF936C017A018B01DC0142
:100540001496AD90BC901597CB01BA0122E030E033
:1005500040E050E00E948005205C3D4B404F5F4FE3
:10056000CA01B901A80197010E948005C901DA01F9
:100570000197A109B109292F3A2F4B2F552747FD84
:100580005A950196A11DB11DE5012883E601EE8172
:10059000FF8181508083EA85FB85208141E050E026
:1005A000CA010E8402C0880F991F0A94E2F7282B13
:1005B0002083EA85FB852081CA010F8402C0880F51
:1005C000991F0A94E2F7282B2083EA85FB85808116
:1005D000088802C0440F551F0A94E2F7842B8083D9
:1005E000DF91CF911F910F91FF90EF90DF90CF900F
:1005F000BF90AF900895FC01A085B18521898C91B1
:1006000090E0022E02C0959587950A94E2F780FF4C
:10061000F6CF0484F585E02D6083089580E591E0B0
:100620009093EE018093ED0189E691E09093F001C3
:100630008093EF0185EC90E09093F2018093F101BB
:1006400084EC90E09093F4018093F30180EC90E0CF
:100650009093F6018093F50181EC90E09093F8017E
:100660008093F70186EC90E09093FA018093F90172
:1006700084E08093FB0183E08093FC0187E080931A
:10068000FD0185E08093FE0108950F931F93CF93A2
:10069000DF938C01EB0109C02196D801ED91FC910B
:1006A0000190F081E02DC801099568816623A1F7CA
:1006B000DF91CF911F910F910895EF92FF920F93C9
:1006C0001F93CF93DF938C017B01EA010CC0D7010C
:1006D0006D917D01D801ED91FC910190F081E02DAB
:1006E000C80109952197209791F7DF91CF911F912C
:1006F0000F91FF90EF900895DC01ED91FC91028045
:10070000F381E02D099508950F931F938C01DC016F
:10071000ED91FC910190F081E02D6DE00995D801FB
:10072000ED91FC910190F081E02DC8016AE00995FE
:100730001F910F9108950F931F938C010E947C03CA
:10074000C8010E9484031F910F9108951F920F9278
:100750000FB60F9211242F933F938F939F93AF93D4
:10076000BF938091030290910402A0910502B09181
:100770000602309107020196A11DB11D232F2D5FA6
:100780002D3720F02D570196A11DB11D2093070292
:100790008093030290930402A0930502B093060293
:1007A0008091FF0190910002A0910102B09102029C
:1007B0000196A11DB11D8093FF0190930002A093AB
:1007C0000102B0930202BF91AF919F918F913F912F
:1007D0002F910F900FBE0F901F901895EF92FF92E0
:1007E0000F931F937B018C018FB7F8944091030204
:1007F0005091040260910502709106028FBF2FB7DD
:10080000F8948091030290910402A0910502B091A6
:1008100006022FBF841B950BA60BB70BE816F90633
:100820000A071B0760F71F910F91FF90EF90089543
:10083000789484B5826084BD84B5816084BD85B5BB
:10084000826085BD85B5816085BDEEE6F0E0808182
:1008500081608083E1E8F0E0808182608083808134
:1008600081608083E0E8F0E0808181608083E1EB5B
:10087000F0E0808184608083E0EBF0E08081816043
:100880008083EAE7F0E080818460808380818260F9
:1008900080838081816080838081806880831092E2
:1008A000C1000895877090914B019295990F990F0F
:1008B000907C982B90937C0080917A008064809348
:1008C0007A0080917A0086FDFCCF209178004091DB
:1008D0007900942F80E030E0282B392BC90108954E
:1008E000282F30E0C90186569F4FFC0194912A576A
:1008F0003F4FF9018491882391F0E82FF0E0EE0F4B
:10090000FF1FE859FF4FA591B491662329F48C91FC
:10091000909589238C9308958C91892B8C930895BD
:10092000482F50E0CA0182559F4FFC012491CA0113
:1009300086569F4FFC0194914A575F4FFA013491BC
:100940003323D1F1222331F1233021F4809180002F
:100950008F7705C0243031F4809180008F7D8093A3
:10096000800018C0213019F484B58F7704C022307C
:1009700021F484B58F7D84BD0DC0263021F4809193
:10098000B0008F7705C0273029F48091B0008F7DAB
:100990008093B000E32FF0E0EE0FFF1FEE58FF4F03
:1009A000A591B491662329F48C91909589238C9319
:1009B00008958C91892B8C930895682F70E0CB015A
:1009C00082559F4FFC012491CB0186569F4FFC011D
:1009D00044916A577F4FFB019491992319F420E0C9
:1009E00030E038C0222331F1233021F4809180009F
:1009F0008F7705C0243031F4809180008F7D809303
:100A0000800018C0213019F484B58F7704C02230DB
:100A100021F484B58F7D84BD0DC0263021F48091F2
:100A2000B0008F7705C0273029F48091B0008F7D0A
:100A30008093B000892F90E0880F991F84589F4FB2
:100A4000FC01A591B4918C9120E030E0842311F059
:100A500021E030E0C9010895629FD001739FF00149
:100A6000829FE00DF11D649FE00DF11D929FF00D3E
:100A7000839FF00D749FF00D659FF00D9927729F75
:100A8000B00DE11DF91F639FB00DE11DF91FBD0100
:100A9000CF011124089597FB092E07260AD077FD70
:100AA00004D049D006D000201AF4709561957F4F8C
:100AB0000895F6F7909581959F4F0895A1E21A2E1B
:100AC000AA1BBB1BFD010DC0AA1FBB1FEE1FFF1FF2
:100AD000A217B307E407F50720F0A21BB30BE40B42
:100AE000F50B661F771F881F991F1A9469F7609589
:100AF0007095809590959B01AC01BD01CF01089543
:100B000097FB092E05260ED057FD04D0D7DF0AD05B
:100B1000001C38F450954095309521953F4F4F4F2C
:100B20005F4F0895F6F790958095709561957F4F8A
:100B30008F4F9F4F0895AA1BBB1B51E107C0AA1FEF
:100B4000BB1FA617B70710F0A61BB70B881F991F6E
:100B50005A95A9F780959095BC01CD010895EE0FA7
:0E0B6000FF1F0590F491E02D0994F894FFCF4B
:100B6E006D696E2020206E6F772020206D617820B9
:100B7E00002D2E2D2D20202D2E2D2D20202D2E2DF5
:100B8E002D00202E20202020202E20202020202E40
:100B9E0020200053657269616C566F6C746D6574BC
:100BAE00657220726561647900FF03010000000028
:060BBE00FB0245035D038C
:00000001FF
