:100000000C9435000C945D000C945D000C945D0024
:100010000C945D000C945D000C945D000C945D00EC
:100020000C945D000C945D000C945D000C945D00DC
:100030000C945D000C945F000C945D000C945D00CA
:100040000C94EC030C945D000C94C5020C945D00C0
:100050000C945D000C945D000C945D000C945D00AC
:100060000C945D000C945D007E0311241FBECFEF45
:10007000D8E0DEBFCDBF11E0A0E0B1E0EEE0FAE0F5
:1000800002C005900D92AA30B107D9F712E0AAE09C
:10009000B1E001C01D92AF3FB107E1F710E0CAE641
:1000A000D0E004C02297FE010E940105C836D107A6
:1000B000C9F70E94BE020C9405050C9400001F9223
:1000C0000F920FB60F9211242F933F934F935F938C
:1000D0006F937F938F939F93AF93BF93EF93FF9310
:1000E00080E28093800010926F0010920A01E091EC
:1000F0000B01F0910C01309711F078940995FF9164
:10010000EF91BF91AF919F918F917F916F915F918F
:100110004F913F912F910F900FBE0F901F90189508
:1001200080910A01882311F081E0089580E2809394
:10013000800080912601882319F01092260102C0C8
:100140002D9A2D98EDE0F1E080818EBD0DB407FE73
:10015000FDCF81818EBD0DB407FEFDCF8281339628
:100160008EBD0DB407FEFDCF81E0E532F80761F7E3
:1001700091E090930A0180EA80938000B09A909376
:100180006F0080E00895CF93DF93EC01219A229ACB
:10019000539A2A9A239A259A229A2D9881E08DBD06
:1001A00080E58CBDCB0124E0969587952A95E1F7F3
:1001B000262F2295207F272BEDE0F1E080832183FD
:1001C0006283339691E0E532F907C1F7CE010E94D0
:1001D000900080E28093800010926F0010920A01DC
:1001E000299A29988093800080E18093810081E0A2
:1001F00090E0909389008093880082E090E0909353
:100200008B0080938A0080E090E290938700809337
:10021000860083E28093B00088E08093B100109262
:10022000B40083E08093B3008091B100816080933B
:10023000B10080918100816080938100CE010E9495
:100240009000DF91CF9108959FE0961B83E0989FE7
:10025000F0011124F695E795E35FFE4F90FF06C08D
:100260008081807F852B808341830895CA0134E09B
:10027000969587953A95E1F7808381818F70942FC9
:100280009295907F892B81830895CF93DF93482F98
:1002900020915F028DE0289FE0011124C95DDE4FAF
:1002A00030E0E7E2F1E024C08081841701F52D976A
:1002B000CE17DF07D1F08881808389819A8192836C
:1002C00081838B819C81948383838D819E81AF8187
:1002D000B88585839683A783B08789859A85AB8502
:1002E000BC8581879287A387B4873F5F21503D9665
:1002F000EC17FD07C8F220935F02832FDF91CF91A7
:1003000008954F925F926F927F928F929F92AF92D9
:10031000BF92CF92DF92EF92FF920F931F93CF93F2
:10032000DF932B013C0190915F028DE0989F40018B
:10033000112487E291E0880E991E80E0C7E2D1E0A7
:1003400068C0A984BA84CB84DC844A145B046C043E
:100350007D04A0F14B815C8189819A81480F591FEE
:1003600085E291E068810E942401E3EFFFEF8E0EA9
:100370009F1E8C169D06D9F0F401808188838181AF
:1003800092819A838983838194819C838B838581E5
:100390009681A781B0858D839E83AF83B887818541
:1003A0009285A385B48589879A87AB87BC8780911E
:1003B0005F02815080935F0281E02BC0ED80FE8060
:1003C0000F8118854E145F046006710608F1C301A1
:1003D000B2016E197F09800B910B2B813C81442760
:1003E00037FD4095542F0E947C04AE18BF08C00A08
:1003F000D10AA60195010E94E404E981FA81E20F85
:10040000F31F85E291E06881AF010E94240181E041
:100410002D96C815D90508F494CF882361F085E29C
:1004200091E00E94900080915F02882321F48091E6
:100430000A018823E1F780915F02DF91CF911F913C
:100440000F91FF90EF90DF90CF90BF90AF909F9073
:100450008F907F906F905F904F9008950E9434042A
:100460000E948101089590915F02963108F064C066
:100470008DE0989F90011124295D3E4FE7E2F1E065
:1004800005C08081813009F457C03D96E217F3071B
:10049000C0F355C0EDE08E9FF0011124E95DFE4FE1
:1004A0008F5F80935F0281E08083128211828FEFE1
:1004B0009FE094838383C901AA2797FDA095BA2F53
:1004C00085839683A783B087CA01805F9B4FAA2745
:1004D00097FDA095BA2F81879287A387B4878091D3
:1004E0005F02883149F1EDE08E9FF0011124E95D52
:1004F000FE4F8F5F80935F0281E080838FEF9FE0EC
:100500009283818381E090EF9483838324523A4FD6
:10051000C901AA2797FDA095BA2F85839683A78343
:10052000B08722523C4FC901AA2797FDA095BA2F48
:1005300081879287A387B4870E942E02089581E065
:100540000E9445010E943404AB01BC019A012E5C5B
:100550003F4F80915F02883109F09CCFC0CF85E288
:1005600091E060E070E00E94C30084EE92E040E819
:1005700055E260E070E00E94020308950E94420488
:100580000E94AF020E943302FDCF1F920F920FB65E
:100590000F9211242F933F934F935F936F937F9309
:1005A0008F939F93AF93BF93EF93FF934091C600B8
:1005B000E091E002F091E102CF01019660E870E085
:1005C0000E94AF049C018091E2029091E3022817FF
:1005D000390739F0E05AFD4F40833093E102209310
:1005E000E002FF91EF91BF91AF919F918F917F9129
:1005F0006F915F914F913F912F910F900FBE0F9090
:100600001F901895AF92BF92CF92DF92EF92FF9218
:100610000F931F93CF93DF936C017A018B01DC0161
:100620001496AD90BC901597CB01BA0122E030E052
:1006300040E050E00E94E404205C3D4B404F5F4F9F
:10064000CA01B901A80197010E94E404C901DA01B5
:100650000197A109B109292F3A2F4B2F552747FDA3
:100660005A950196A11DB11DE5012883E601EE8191
:10067000FF8181508083EA85FB85208141E050E045
:10068000CA010E8402C0880F991F0A94E2F7282B32
:100690002083EA85FB852081CA010F8402C0880F70
:1006A000991F0A94E2F7282B2083EA85FB85808135
:1006B000088802C0440F551F0A94E2F7842B8083F8
:1006C000DF91CF911F910F91FF90EF90DF90CF902E
:1006D000BF90AF900895FC01A085B18521898C91D0
:1006E00090E0022E02C0959587950A94E2F780FF6C
:1006F000F6CF0484F585E02D6083089584E091E0D1
:100700009093E5028093E40280E692E09093E70202
:100710008093E60285EC90E09093E9028093E802F2
:1007200084EC90E09093EB028093EA0280EC90E0FE
:100730009093ED028093EC0281EC90E09093EF02B5
:100740008093EE0286EC90E09093F1028093F002A9
:1007500084E08093F20283E08093F30287E0809349
:10076000F40285E08093F50208950F931F93CF93D1
:10077000DF938C01EB0109C02196D801ED91FC912A
:100780000190F081E02DC801099568816623A1F7E9
:10079000DF91CF911F910F910895EF92FF920F93E8
:1007A0001F93CF93DF938C017B01EA010CC0D7012B
:1007B0006D917D01D801ED91FC910190F081E02DCA
:1007C000C80109952197209791F7DF91CF911F914B
:1007D0000F91FF90EF9008951F920F920FB60F9216
:1007E00011242F933F938F939F93AF93BF93809147
:1007F000FA029091FB02A091FC02B091FD023091AF
:10080000FE020196A11DB11D232F2D5F2D3720F073
:100810002D570196A11DB11D2093FE028093FA026F
:100820009093FB02A093FC02B093FD028091F6022C
:100830009091F702A091F802B091F9020196A11DE2
:10084000B11D8093F6029093F702A093F802B09343
:10085000F902BF91AF919F918F913F912F910F908E
:100860000FBE0F901F9018958FB7F8942091FA0241
:100870003091FB024091FC025091FD028FBFB90103
:10088000CA010895789484B5826084BD84B581607E
:1008900084BD85B5826085BD85B5816085BDEEE688
:1008A000F0E0808181608083E1E8F0E08081826017
:1008B0008083808181608083E0E8F0E080818160D6
:1008C0008083E1EBF0E0808184608083E0EBF0E006
:1008D000808181608083EAE7F0E0808184608083AA
:1008E0008081826080838081816080838081806854
:1008F00080831092C1000895629FD001739FF00120
:10090000829FE00DF11D649FE00DF11D929FF00D9F
:10091000839FF00D749FF00D659FF00D9927729FD6
:10092000B00DE11DF91F639FB00DE11DF91FBD0161
:10093000CF0111240895AA1BBB1B51E107C0AA1FB8
:10094000BB1FA617B70710F0A61BB70B881F991F70
:100950005A95A9F780959095BC01CD01089597FB14
:10096000092E07260AD077FD04D0E5DF06D0002047
:100970001AF4709561957F4F0895F6F790958195DB
:100980009F4F0895A1E21A2EAA1BBB1BFD010DC0AB
:10099000AA1FBB1FEE1FFF1FA217B307E407F5072F
:1009A00020F0A21BB30BE40BF50B661F771F881F0B
:1009B000991F1A9469F760957095809590959B01A1
:1009C000AC01BD01CF01089597FB092E05260ED07D
:1009D00057FD04D0D7DF0AD0001C38F4509540955D
:1009E000309521953F4F4F4F5F4F0895F6F7909503
:1009F0008095709561957F4F8F4F9F4F0895EE0FB3
:0E0A0000FF1F0590F491E02D0994F894FFCFAC
:0A0A0E00000000006B03B503CD03E8
:00000001FF
